:020000040800F2
:10000000282100209D0100083F230008F91D000859
:100010003D230008390D0008D13A00080000000017
:10002000000000000000000000000000693400082B
:10003000510D00080000000003020008FD35000813
:10004000B7010008B7010008B7010008B7010008B0
:10005000B7010008B7010008B7010008B7010008A0
:10006000B7010008B7010008B7010008B701000890
:10007000B7010008B7010008B7010008B701000880
:10008000B7010008B7010008B7010008B701000870
:10009000B7010008B7010008B7010008B701000860
:1000A000B7010008B7010008B7010008B701000850
:1000B000B7010008B7010008B7010008B701000840
:1000C000B7010008B7010008B7010008B701000830
:1000D000B7010008B7010008B7010008B701000820
:1000E000B7010008B7010008B7010008B701000810
:1000F000B7010008B7010008B7010008B701000800
:10010000B7010008B7010008B7010008B7010008EF
:10011000B7010008B7010008B7010008B7010008DF
:10012000B7010008B7010008B7010008B7010008CF
:10013000B7010008B7010008B7010008B7010008BF
:10014000B7010008B7010008B7010008B7010008AF
:10015000B7010008B7010008B7010008B70100089F
:10016000B7010008B7010008B7010008B70100088F
:10017000B7010008B7010008B7010008000000003F
:10018000B7010008B7010008DFF80CD000F05EFBF3
:1001900000480047694F0008282100200648804792
:1001A00006480047FEE7FEE7FEE7FEE7FEE7FEE75C
:1001B000FEE7FEE7FEE7FEE7AD360008890100082E
:1001C000EFF3108072B6704780F3108870472448B0
:1001D0004FF0FF010170002080F3098821480121C0
:1001E000017021484FF08051016062B6FEE71E4861
:1001F0004FF08051016070471B484FF08051016003
:10020000704772B62EF01F0E4EF0090EEFF3098004
:1002100050B11EF0100F08BF20ED108A203880E882
:10022000F00F12490968086000B5114880475DF871
:1002300004EB104810490A7802700C480F490A680C
:100240000260106890E8F00F20301EF0100F08BF19
:10025000B0EC108A80F309884EF0040E62B6704745
:1002600022ED00E08700002004ED00E0A000002067
:10027000252A00088400002085000020A800002016
:100280002DE9F05F0546002092469B4688460646CB
:10029000814640241BE0284641464746224600F05E
:1002A000B0F953465A46C01A914110D31146184628
:1002B000224600F097F92D1A67EB01084F462246B7
:1002C0000120002100F08EF917EB00094E41201E9D
:1002D000A4F10104DFDC484631462A464346BDE826
:1002E000F09FD2B201E000F8012B491EFBD270470B
:1002F0000022F6E710B513460A4604461946FFF7F2
:10030000F0FF204610BD2DE9FE4F804681EA030034
:10031000C00F0C46009021F0004123F00045B8EBDF
:100320000200A94105D24046214690461C460B4694
:10033000024623F00040104347D0270DC7F30A00C0
:10034000C3F30A510290401A019040286BDAC3F3BC
:10035000130040F4801B0098924620B10023D2EB9A
:10036000030A63EB0B0B01985946C0F1400250465B
:1003700000F038F906460D4650465946019A00F0FD
:1003800050F910EB08006141002487EA115284EA19
:10039000E7731A4340D0009A62B3019A012A4FEAE8
:1003A000075215DC001B61EB02014FF0004202EA2C
:1003B0000752CDE90042001C41F5801132462B4620
:1003C00000F087F903B0BDE8F08F40462146F9E719
:1003D000001B61EB0201001C41F5801300185B411A
:1003E0002018A2F5001747EB030140EAD570B619B3
:1003F0006D4111E06D084FEA360645EAC0754FEAD7
:100400000752001B61EB0201001C41F580114908F5
:100410004FEA30000019514132462B4603B0BDE887
:10042000F04F00F047B90098012240000023D0EBC4
:10043000020263EBE073009821464FEAE074B8EBE8
:10044000000061EB0401E9E783F000435BE781F022
:10045000004158E72DE9FE4F81EA030404F000440F
:1004600021F0004100944FF0000B23F0004350EACC
:1004700001045ED052EA03045BD0C3F30A54C1F313
:100480000A552C44A4F2F3340194A0FB0254C1F3A6
:10049000130141F48011C3F3130343F4801301FBF0
:1004A000024400FB034E840A970A44EA815447EA57
:1004B0008357A4FB076802958D0A05FB07854FEA61
:1004C000932C04FB0C542705029D4FEA065847EA7B
:1004D0001637B5EB08056EEB070C870E920E47EA50
:1004E000811742EA8312A7FB0201B6EB0B0164EB12
:1004F00000042B0D43EA0C335E1844EB1C50DA4623
:100500005146E7FB0201C5F313044FEA0B3343EAFC
:1005100014534FEA0432019C43EA0603A4F10C048D
:100520000294009CCDE900B400F0D3F803B0BDE81C
:10053000F08F00200146F9E70EB5C10F80EAE070A8
:100540000844CA07002140F233438DE80E000A46F2
:100550000B4600F0BEF803B000BD00F0004230F0E2
:1005600000400AD0C10D01F56071C0F3160042EAE7
:100570000151C208400711437047002001467047EF
:1005800001F0004330B421F0004150EA010206D0EE
:100590000A0DA2F56072C1F31301002A02DC30BC1F
:1005A00000207047440F44EAC104C100E01830BC89
:1005B00000EBC25000F047B830B50B4601460020B2
:1005C0002022012409E021FA02F59D4205D303FA15
:1005D00002F5491B04FA02F52844151EA2F1010296
:1005E000F1DC30BD202A04DB203A00FA02F10020C1
:1005F00070479140C2F1200320FA03F31943904061
:100600007047202A04DB203A21FA02F000217047CB
:1006100021FA02F3D040C2F120029140084319466A
:100620007047202A06DBCB17203A41FA02F043EA52
:10063000E07306E041FA02F3D040C2F1200291409B
:100640000843194670470029A8BF7047401C49005D
:1006500008BF20F00100704710B4B0FA80FC00FA27
:100660000CF050EA010404BF10BC704749B1CCF152
:10067000200421FA04F411FA0CF118BF01212143DE
:100680000843A3EB0C01CB1D4FEA00614FEA102099
:1006900042BF002010BC704700EBC350104400293B
:1006A000A4BF10BC7047401C490008BF20F00100E7
:1006B00010BC704710B5141E73F1000408DA401C1A
:1006C00041F1000192185B411A4301D120F0010071
:1006D00010BD2DE9F04D92469B4611B1B1FA81F261
:1006E00002E0B0FA80F220329046FFF77BFF04462A
:1006F0000F4640EA0A0041EA0B0153465A460843B6
:1007000013D0114653EA010019D0C8F140025046F7
:10071000FFF777FF05460E46504659464246FFF71B
:1007200061FF084305D0012004E020463946BDE8BA
:10073000F08D0020054346EAE0762C4337430A98C3
:100740006305E40AA0EB08000022FD0A44EA4754CE
:100750000A3002D500200146E9E701051019694178
:10076000DDE9084500196941BDE8F04DA2E72DE932
:10077000F04D81EA030404F0004B21F000451446DB
:100780004FF0000A23F0004150EA050220D054EA5D
:1007900001021DD0C5F30A570246C5F31303C1F386
:1007A0001300C1F30A5640F4801543F48013A7EBFD
:1007B0000608101BD64608F2FD3873EB050002D37D
:1007C00008F1010801E092185B41B8F1000F03DA6B
:1007D00000200146BDE8F08D00204FF48011064650
:1007E00084460EE0171B73EB050705D3121B63EB62
:1007F000050306434CEA010C49084FEA3000921801
:100800005B4150EA0107EDD152EA030012D082EABF
:10081000040083EA0501084305D0101BAB4106D252
:100820000122002306E000224FF0004302E06FF0B7
:10083000010253101AEB06004CEB085110EB0A00B2
:1008400041EB0B01BDE8F04DFFF734BF064C074DFF
:1008500006E0E06840F0010394E807009847103490
:10086000AC42F6D3FFF794FC6853000888530008A5
:100870002DE9F04D00231A461B1A8A4103DB0020A4
:100880000146BDE8F08DC1F30A52C1F3130141F4F2
:1008900080154FF0000BD10702D100186D41521E98
:1008A0000027044640F2FF11384601EB620A3E463B
:1008B0008046024600204FF48011FFF7A2FEC219C5
:1008C0007141BB1846EB0100B4EB030C75EB000C57
:1008D00004D3E41A65EB000517460E46241908F107
:1008E00001006D4180463428E3DDF91946EB06002E
:1008F000091BA84103D24FF0FF32134601E000224A
:1009000013461BEB070046EB0A51BDE8F04DFFF71D
:10091000D1BE0EB540F2334102910021CDE9001164
:100920000A460B46FFF7D5FE03B000BD70B5C1F314
:100930000A5201F000450024C1F3130140F2FF33D5
:1009400041F480119A4201DA002070BD40F2334335
:100950009A42A2F2334203DC5242FFF752FE00E019
:1009600090402C43F1D0404270BD000030B5EC4CBB
:100970002DED108BF0EE409AF0EE418AB0EE609AC9
:1009800085B0D4ED044A94ED060A94ED051AD4ED31
:10099000070A64EEA4AA64EE815A64EE80FA24EE9B
:1009A000A0AA21EE007A20EE005A60EE204A21EE45
:1009B000A10A61EE017A61EE206A20EEA06A02EEE1
:1009C000020A02EEA20A04F0B9FA21EE80FA62EEFF
:1009D00000EA22EE80EA3AEEE70A76EEEFDA35EE4A
:1009E000A41AB0EE008A30EE450A2DEE88DA8DEDBD
:1009F000031A61EE08CA30EE06CA23EE030A03EEBC
:100A0000A30A04EE040A04F099FAF6EE002A63EE53
:100A100000BA23EE80BA64EE00AA32EEC50A2BEECD
:100A2000881A6BEE081A77EE4A0A30EE460A36EE5E
:100A3000AF2A72EEE72A21EE000A32EEC63A72EED3
:100A4000C5FA01EEA00A6AEE880A00EE820A37EEC5
:100A50000A2A21EE2DAA8DED022A21EE022A8DED21
:100A6000013A34EEA51A20EE000A01EE832A34EE94
:100A7000E53A01EE81AA8DED003A00EE832A00EE00
:100A8000AFAA02EE020A03F03BFD60EE081A9DEDEC
:100A9000022A9DED013A9DED031A21EE820A2AEE0B
:100AA000082A61EE830A9DED003A02EE2D0A42EE1D
:100AB000010A21EE831A6EEE8C1A02EE2F1A4EEE08
:100AC0006C1A6AEE802A2BEE012A4BEEC12A2FEE19
:100AD0002C1A0AEEE02A6BEEA00A0EEECD1A4BEEAF
:100AE000400A31EE822A6EEE0D1A4FEE4C1A71EE6C
:100AF000A22A71EE201A00F0B1F9B5EEC02A84EDF9
:100B0000030AF1EE10FA31D0F5EEC02AF1EE10FA38
:100B10002CD0F5EEC01AF1EE10FA27D0D4ED020A6F
:100B200094ED081A22EE203A62EEA03A03EE001A83
:100B300084ED081A94ED093A03EE803A61EEA03A8A
:100B400084ED093AD4ED0A0A43EE800AC4ED0A0A9C
:100B5000D4ED013A43EE829A03EEA29A43EEA18AC3
:100B600079EE819A39EE039A78EEA08A94ED053AEF
:100B700094ED042AD4ED060A63EE691A62EE292A7E
:100B800022EE094AF0EE423A40EEC91A22EE282A35
:100B900094ED071A40EEA82A03EE684A03EE092AEC
:100BA00041EE681A41EE492A01EE294A00EEE92A8F
:100BB00041EE803AF0EE431A42EE801AF0EE602ADF
:100BC00002EE001A44EE002A23EEA30AC4ED043A12
:100BD000C4ED051A01EEA10AC4ED062A84ED071A38
:100BE00002EEA20A01EE010A04F0A8F9D4ED040A0B
:100BF00060EE801AC4ED041AD4ED050A20EE801AC6
:100C000084ED051AD4ED060A60EE800AC4ED060AEA
:100C100094ED072A61EEA00A22EE000A84ED070A8D
:100C200041EE400A20EE880A10EE100AFFF795FC0C
:100C300041EC100B02F088FF9FED3AAB51EC100B2A
:100C400053EC1A2BFFF706FCFFF79AFC374D686050
:100C500094ED04CAD4ED058AD4ED069A2CEE0C0A64
:100C600094ED079A08EEE80A09EEE90A09EE090A86
:100C700010EE100AFFF771FC2CEE280A41EC1B0B5A
:100C800009EE890A20EE080A10EE100AFFF765FC4B
:100C900041EC100BB0EE4B1AF0EE6B1A03F070FA49
:100CA0009FED231B51EC100B53EC112BFFF7D2FBE4
:100CB000FFF766FCA86094ED04CA94ED059AD4EDA4
:100CC000069A2CEE0C0AD4ED078A09EE090A09EE01
:100CD000E90A08EEE80A10EE100AFFF73EFC2CEED7
:100CE000280A41EC1B0B09EE290A20EE080A10EE37
:100CF000100AFFF732FC41EC100BB0EE4B1AF0EE8D
:100D00006B1A03F03DFA53EC1A2B51EC100BFFF762
:100D1000A1FBFFF735FC286005B0BDEC108B30BDA2
:100D20000000002000000020DCA54C40DC0000207A
:100D300000000020DCA54CC0FEE70000024803498B
:100D400000780978084370474900002048000020D7
:100D5000704770471FB5684601F0CAF9F0B302A8A2
:100D600001F0CFF9D0B3BDF8000041BA3448028891
:100D70008A1A34490A80BDF80220438852BAD21A2E
:100D80004A80BDF80420808852BA101A2E4B888001
:100D9000BDF80800198840BA401A02B22B4800EE8C
:100DA000102A0280BDF80A105C8849BA091B09B2F2
:100DB0004180BDF80C409B8864BAF8EEC00AE31A83
:100DC0009FED230A1BB2838060EE800A2148C0EDAC
:100DD000000A00EE901AF8EEE00A00E00BE060EE88
:100DE000800AC0ED010A00EE903AF8EEE00A20EE2B
:100DF000800A80ED020A684600F0F5FFE8B1BDF810
:100E000000004FF4004440BA01B21348A1420180EF
:100E1000BDF8042052BA13B24380BDF8022052BA82
:100E200012B2828001DB491C0180A34201DB5B1C02
:100E30004380A24201DB521C828001F06BF91FBD8E
:100E4000500000204A0000205C00002056000020D6
:100E500089A18B3AD0000020620000204FF0804131
:100E6000486A00224A6200EE100A9FED031AF8EE6B
:100E7000400A80EE810A70470024F4492DE9F84FBA
:100E800000224FF0010803254FF00F0E0B6808FAFF
:100E900002F42340A3426ED14E68012E05D0022EEB
:100EA00003D0112E01D0122E12D186684FEA420CC7
:100EB00005FA0CF7BE43CF6807FA0CF73743876093
:100EC0004668A6430C79C4F300149440344344604C
:100ED000C668570005FA07FC8C6826EA0C06BC4079
:100EE0003443C4604C68022C01D0122C13D1D408B6
:100EF00000EB8404A346D4F8209054074FEAD46A48
:100F00000EFA0AF629EA06090E6906FA0AF646EA10
:100F10000906CBF8206006680C7926EA0C0604F076
:100F20000304BC40344304604C68E40065D5364C8F
:100F3000266846F480462660246822F0030604F4FE
:100F400080440094314C3444A446D4F808489607B1
:100F5000370F0EFA07F6B4432D4EB04201D10026EA
:100F600024E02C4EB04201D101261FE02A4EB042AF
:100F700002D102261AE040E0284EB04201D10326F9
:100F800014E0274EB04201D104260FE0254EB042B6
:100F900001D105260AE0244EB04201D1062605E023
:100FA000224EB04201D1072600E00826BE4026436B
:100FB000CCF808681E4E34684F689C43FF0300D588
:100FC0001C4334601A4C241D26684F689E43BF039F
:100FD00000D51E432660164E083634684F689C4381
:100FE000FF0200D51C433460114E0C3634684F6844
:100FF0009C43BF0200D51C433460521C102AFFF4EE
:1010000045AFBDE8F88F0000443802400030014091
:10101000000002400004024000080240000C0240B0
:10102000001002400014024000180240001C024060
:10103000003C0140014880687047000070000020BB
:1010400070B5040025D094F83D00002520B984F83F
:101050003C50204600F0B4F9242084F83D0020687C
:10106000016821F0010101602068016841F400413C
:1010700001602068016821F40041016000F0FAFA83
:101080004D4A6168914201D84C4900E04C49884280
:1010900001D2012070BD4B492368B0FBF1F15E68BD
:1010A00026F03F060E435E606368934206D94FF414
:1010B000967359434FF47A73B1FBF3F12368491CDB
:1010C0001E6A26F03F06314319626168914210D8CA
:1010D0004900401EB0FBF1F2521CC2F30B02042A7D
:1010E00001D2042022E0B0FBF1F0401CC0F30B0061
:1010F0001CE0A268F2B301EBC10303EB0116431E2F
:10110000B3FBF6F35B1C43F480431B0549D092B359
:1011100001EBC10202EB0111401EB0FBF1F0401CDB
:10112000C0F30B0040F4804040F400402168CA69DD
:101130004CF6FF739A431043C861D4E9071001438A
:101140002068026822F0C00211430160D4E9030163
:1011500001432068826848F2FF339A43114381605B
:10116000D4E9050108432168CA6822F0FF02104350
:10117000C86001E00EE016E02068016841F001015E
:1011800001602564202084F83D00256384F83E50EA
:10119000002070BD01EB4106431EB3FBF6F35B1C60
:1011A000B3E70120C2E701EB4101401EB0FBF1F0C3
:1011B000401CC0F30B00B7E7A086010080841E002E
:1011C00000093D0040420F002DE9FF4F83B09A46D1
:1011D000DDE9119793460446DDF84080FFF72AFFCA
:1011E000054694F83D00202870D119230122714949
:1011F0002046009500F096FE0028F5D194F83C00BA
:10120000012863D0012084F83C0020680168C907E8
:1012100003D1016841F0010101602068016821F4F7
:1012200000610160222084F83D00402084F83E00E7
:1012300000262664C4F82480A4F82A90608D2085B6
:101240005D48E062CDE9007553465A462046049950
:1012500000F0EAFD00287CD1208DD0B1012821D0FA
:101260000228206824D0416980690090208D0328DD
:1012700069D801282BD0514902283B464FF0000283
:10128000009559D08846204600F04CFE002860D1D9
:101290003CE02068416981690091016841F4007176
:1012A000016077E02068016821F480610160F0E767
:1012B000016821F4806101602068016841F40061E7
:1012C0000160206841698069009063E06FE02A4610
:1012D0003946204600F0A5FE98BB20680069616A87
:1012E00008704EE02068016841F4007101602068D8
:1012F0000069616A0870606A401C6062218D491E45
:101300002185618D491E6185216838E0206801686A
:1013100021F48061016020680069616A0870606A78
:10132000401C6062208D401E2085608D401E6085BF
:101330003B46002241460095204600F0F3FD00B9EF
:10134000D0E706E0FFE72A463946204600F069FE6E
:1013500018B1012007B0BDE8F08F20680069616A0C
:101360000870606A401C6062218D491E2185618D74
:10137000491E618521684A69D24352070AD4096926
:101380000170606A401C6062208D401E2085608D67
:10139000401E6085208D00287FF468AF202084F8EF
:1013A0003D0084F83E6084F83C600020D2E70220D3
:1013B000D0E70000020010000000FFFF0400010061
:1013C00010B586B0044614216846FEF791FF134914
:1013D0002068884220D11248016841F00201016072
:1013E0000068694600F002000590C02000901220BD
:1013F00001900120029003200390042004900948EA
:10140000FFF73CFD06481030016841F4001101600F
:10141000006800F40010059006B010BD00540040B4
:1014200030380240000402400248816802781144CA
:1014300081607047700000200B4810B5016841F4CE
:1014400000710160016841F480610160016841F44C
:1014500080710160032000F061F8002000F006F8C0
:1014600000F024F8002010BD003C024070B50D4D86
:1014700004464FF47A712878B1FBF0F00A49096804
:10148000B1FBF0F000F0F6FA48B9102C07D20022B8
:101490002146501E00F022F800206C6070BD012033
:1014A00070BD0000700000207C0000200A4808B5D4
:1014B000016841F480410160006800F480400090C0
:1014C0000548001F016841F080510160006800F08C
:1014D0008050009008BD000044380240F0B40E4B2C
:1014E0001B680C46C3F30223C3F10705042D00D982
:1014F0000425191D072901D2002300E0DB1E012667
:1015000006FA05F1491E214099409E40761E16407C
:101510003143F0BC02F006BB0CED00E0064900F0E0
:10152000070208684FF6FF03184040EA0220034A0A
:1015300010430860704700000CED00E00000FA0561
:101540002DE9F0470E46050065D0DFF81481D8F884
:101550000000F7B200F00F00B04207D288F8007028
:10156000D8F8000000F00F00B04254D128683D4C7C
:10157000810712D5400703D5206840F4E050206071
:101580002878000703D5206840F460402060206878
:10159000A96820F0F000084320602878C0072DD00B
:1015A000304968680839012812D0022813D003286E
:1015B00011D00968890700292DDA216821F003017B
:1015C00001432160FFF736FD814641F2883A0EE083
:1015D00009688903EFE709688901ECE7FFF72AFD4D
:1015E000A0EB0901514502D90320BDE8F08720682E
:1015F000696800F00C00B0EB810FEFD1D8F8001053
:10160000404601F00F01B14207D90770006800F0B1
:101610000F00B04201D00120E7E72878400705D548
:101620002068E96820F4E05008432060287800072B
:1016300006D52068296920F4604040EAC100206096
:1016400000F038F82168084AC1F30311515CC84022
:101650000649086006480068FFF708FF0020C4E755
:10166000003C0240083802403A5000087C0000204C
:10167000740000200448054900680968044AC1F361
:101680008221515CC84070477C000020083802402D
:101690004A5000080448054900680968044AC1F333
:1016A0004231515CC84070477C000020083802403D
:1016B0004A500008154810B5006810F00C02144894
:1016C00013D01449042A0FD0082A0ED10F4C241F1E
:1016D0002268236802F03F025B0207D52068C0F34E
:1016E0008810A0FB010106E0084610BD2168C1F387
:1016F0008811A1FB00010023FEF7C2FD2168C1F3A0
:101700000141491C4900B0FBF1F010BD083802400E
:101710000024F40040787D012DE9F84F04006ED0DC
:101720002078DFF83C93C007A9F104054AD009F1FD
:1017300004000168C1F38101012908D00068C0F3E9
:10174000810002280AD1D9F80000400206D5286895
:10175000800337D560680028E1D033E06068B0F5D9
:10176000803F10D0B0F5A02F286810D020F4803032
:101770002860286820F4802028606068A8B1FFF7FE
:1017800059FC06460DE0286840F48030F4E740F448
:1017900080202860F7E700BFFFF74CFC801B64281F
:1017A00073D828688003F7D50CE0FFF743FC0646A2
:1017B00005E000BFFFF73EFC801B6428F0D82868D6
:1017C0008003F7D42078DFF89C8280074FF0000A6E
:1017D0003ED5A348001D016811F00C0F08D0006829
:1017E000C0F3810002280BD1D9F80000400207D4D1
:1017F0002868800716D5E068012800D112E02BE1A7
:10180000E068B8B10120C8F80000FFF713FC0646F5
:1018100005E000BFFFF70EFC801B0228C0D8286837
:101820008007F7D52868216920F0F80040EAC10058
:1018300028600DE0C8F800A0FFF7FCFB064604E0B6
:10184000FFF7F8FB801B02281FD828688007F7D411
:101850002078000722D5824E83486169703671B1C5
:1018600001210160FFF7E6FB074604E0FFF7E2FB1A
:10187000C01B022809D830688007F7D50EE0C0F8F1
:1018800000A0FFF7D7FB074605E082E0FFF7D2FB99
:10189000C01B02287DD830688007F7D42078400725
:1018A00068D5DFF8BCB100270BF13C0BDBF800007A
:1018B000C0000BD4DBF8001041F08051CBF80010D1
:1018C000DBF80000012700F080500090674E306880
:1018D000C00510D4306840F480703060FFF7AAFB78
:1018E000009005E0FFF7A6FB0099401A022850D8A7
:1018F0003068C005F6D55A4EA0686C3601280FD066
:101900000528306810D020F001003060306820F0E9
:1019100004003060A068B8B1FFF78CFB00900FE0C6
:10192000306840F00100F4E740F004003060F7E771
:10193000FFF780FB0099411A41F28830814266D856
:1019400030688007F4D50EE0FFF774FB009007E0E5
:10195000FFF770FB0099411A41F28830814256D856
:1019600030688007F4D42FB1DBF8001021F08051EB
:10197000CBF80010A069C8B33949091D0968C1F343
:10198000810102294AD00228504607D0C8F86000D9
:1019900000E03CE0FFF74EFB04463BE04746C8F85A
:1019A0006000FFF747FB064605E000BFFFF742FB7C
:1019B000801B02282BD828688001F7D4D4E90701BE
:1019C0000843A16A2A4A490802EB0141626A41EAD6
:1019D0008211084394F82C1040EA0161C9F8001004
:1019E00001203866FFF726FB044606E036E000BF1C
:1019F000FFF720FB001B022809D828688001F7D5D3
:101A00002CE000BFFFF716FB001B022802D90320C1
:101A1000BDE8F88F28688001F4D41FE00128F7D0D2
:101A2000D9F80000E26900F48001914214D1226AE1
:101A300000F03F0191420FD147F6C071626A014048
:101A4000914209D1A26A00F44031914204D1E16A85
:101A500000F07060884201D00120D9E70020D7E76C
:101A60000438024000004742800E474200700040A8
:101A70000000FFFF10B5401EB0F1807F01D30120B0
:101A800010BD4FF0E02460610F21601702F04AF8AA
:101A90000020A06107202061002010BD70B590F8E3
:101AA0003C20012A32D0012480F83C40022280F8F8
:101AB0003D2003685A689D6822F070060A68324328
:101AC0005A60134B02689A4214D0B2F1804F11D081
:101AD000104B9A420ED0104B9A420BD00F4B9A42A9
:101AE00008D00F4B9A4205D00E4B9A4202D00E4BB3
:101AF0009A4204D1496825F080031943916080F827
:101B00003D40002180F83C10084670BD022070BDA9
:101B1000000001400004004000080040000C0040AC
:101B200000040140004001400018004010B50400CE
:101B300003D094F83D0010B107E0012010BD002053
:101B400084F83C00204600F00DF8022084F83D00A7
:101B5000211D206801F0B8FD012084F83D0000201F
:101B600010BD000008B50068B0F1804F08D10548ED
:101B7000016841F001010160006800F0010000907F
:101B800008BD00004038024070B5044690F83C00A3
:101B9000012817D0012584F83C50022084F83D002C
:101BA0002068826822F0770222F47F42826008680F
:101BB000502830D00DDC20284DD005DC98B31028FB
:101BC0003BD148E0022070BD302844D0402834D1B9
:101BD00039E0602828D0702806D0B0F5805F2CD07E
:101BE000B0F5005F29D10AE0CB68D1E90121206876
:101BF00001F0CEFD2068816841F0770109E0CB68F3
:101C0000D1E90121206801F0C3FD2068816841F419
:101C10008041816011E0CA684968206801F0CAFD0E
:101C20005021206807E016E0CA684968206801F082
:101C3000D2FD6021206801F0B5FD84F83D50002000
:101C400084F83C0070BDCA684968206801F0B2FDA4
:101C500040212068EFE7226801461046EBE770B5A7
:101C6000040004D094F83900002510B106E00120EA
:101C700070BD84F83850204600F022F8242084F803
:101C800039002068C16821F40051C160204601F08C
:101C90004FFE2068016921F490410161206841698B
:101CA00021F02A0141612068C16841F40051C160FE
:101CB000E563202084F8390084F83A00002070BDE4
:101CC00010B586B0044614216846FEF711FB14498E
:101CD0002068884221D113480021026842F4802202
:101CE0000260006800F4802005900E4810380268F9
:101CF00042F008020260006800F0080005904FF40E
:101D0000407000900220CDE90101032003900720DC
:101D1000049069460448FFF7B1F806B010BD000012
:101D20000048004040380240000C02402DE9F843D2
:101D3000044690F839001F4616460D46202850D11B
:101D4000B5B1AEB194F8380001284AD0012084F82A
:101D500038004FF00008C4F83C80212084F8390096
:101D6000FFF768F9A6848146E68484F8388026E087
:101D70000120BDE8F883E08C401EE084A0684B465B
:101D8000B0F5805F4FF000024FF0800120460097D1
:101D900003D001F061FEE8B90DE001F05DFEC8B9C5
:101DA00028882168C0F308004860206908B16D1CCC
:101DB00005E0AD1C03E0216815F8010B4860E08CDC
:101DC0000028D8D14B46002240212046009701F040
:101DD00043FE08B10320CCE7202084F8390000201E
:101DE000C7E70220C5E710B50346062203211E20DF
:101DF00001F0E6FB012010BDFEE701684A69D2430D
:101E000052050FD46FF480624A61002140F8301F00
:101E1000202242738173026942F00402026101735D
:101E200001207047002070472DE9F84F04460068F4
:101E300089460B9D01689846174641F48061016010
:101E40002068016841F48071016000954FF0011B2A
:101E50000022594620460A9B00F064F84FF4007AAD
:101E600040B120680068C00501D5C4F840A0032037
:101E7000BDE8F88F216809F0FE0008612B4628496B
:101E800020460A9A00F082F8F0BB20684169806918
:101E900000902A4620460A9900F0F6F840B1206CDE
:101EA00004283AD12068016841F40071016034E0EF
:101EB000FEB2B8F1010F09D02168380A08612A463C
:101EC00020460A9900F0E0F80028E8D12068066171
:101ED0002A4620460A9900F0D7F80028DFD120686A
:101EE000016841F480710160009500225946204646
:101EF0000A9B00F017F80028B3D1216809F0FF0011
:101F000040F00100086100E007E02B46044920464C
:101F10000A9A00F03BF80028AAD00120A8E70000A8
:101F2000020001002DE9F0471E4690460D4604468A
:101F3000C1F30747DDF8209008E0701C06D0FFF7DA
:101F400079F8A0EB0900B0420FD876B12068012FD4
:101F500018D0806925EA00000004000C14D000218C
:101F60004145EAD00020BDE8F087002044F8300F5A
:101F700020216173A073216941F020012161207348
:101F80000120F0E74069E5E70121E9E72DE9F047A5
:101F90009A4691460E46044600254FF02008C1F3AC
:101FA000074725E020684069C043400514D42068F5
:101FB000016841F40071016021686FF4806048613C
:101FC000256384F83D8084F83E50206C40F0040086
:101FD000206484F83C501FE0B9F1FF3F08D0FFF7C0
:101FE00029F8A0EB0A0149450CD8B9F1000F09D036
:101FF0002068012F13D0806926EA00000004000C3D
:102000000BD0CFE744F8305F84F80D80A5732069CA
:1020100040F02000206125730120BDE8F087406971
:10202000EAE72DE9F041002590460E4604462027B8
:1020300017E04069C043C0060CD454F8301B6FF061
:102040001000486144F810596777A577206A20622C
:10205000257717E0FEF7EEFFA0EB0800B04208D8A6
:102060003EB120684169C9434906E2D40020BDE879
:10207000F08144F8305F6773A573206940F0200059
:10208000206125730120F2E770B516460D4604461F
:102090000DE02046FFF7B1FE08B1012070BD681CBD
:1020A00005D0FEF7C7FF801BA84207D835B12068CE
:1020B0004069C0430006ECD4002070BD002044F805
:1020C000300F20216173A073216941F0200121614B
:1020D0002073E2E73EB5C824CDE900320A46014646
:1020E000029401230148FFF76FF83EBD1C11002048
:1020F00010B5034606223B21682001F061FA012059
:1021000010BD10B5034606224321682001F058FA9D
:10211000012010BD2DE9F043DFF8DCC037484FF057
:1021200001099CF8002000214FF0640882B3037875
:10213000334AABB15B1CDDB2324B0570C66AB3F9F2
:102140000040652D3444C462B3F90260076B3E441D
:102150000663B3F90430476B3B4443630AD017E08E
:10216000118051809180C1620163416380F80090C9
:10217000BDE8F08394FBF8F4148096FBF8F493FB2D
:10218000F8F35480A3F50053938001708CF800108D
:10219000DFF874C09CF80020002AE9D043781B4A7D
:1021A0000BB35B1CDDB21A4B4570866BB3F9004074
:1021B000652D34448463B3F90260C76B3E44C66343
:1021C000B3F90430076C3B440364D1D194FBF8F4B9
:1021D000148096FBF8F493FBF8F3548093804170DD
:1021E0008CF80010C4E71180518091808163C16335
:1021F000016480F80190BBE7490000200000002046
:10220000500000204A000020480000205C00002010
:1022100056000020114808B5016841F080010160B6
:10222000016801F080010091016841F0080101603E
:10223000016801F008010091016841F001010160AD
:10224000016801F001010091016841F002010160A3
:10225000006800F00200009008BD00003038024025
:102260000D4810B50B4901600C49416000214FF445
:1022700080428160C0E9031241618161C1610162F4
:10228000FEF7DEFE002803D0BDE81040FEF761BD7A
:1022900010BD0000005400401C110020801A0600F0
:1022A00010B586B00024164800940194029403945B
:1022B00004944FF08041059401605321C0E901145A
:1022C000611EC0E9031480218161FFF72FFC08B172
:1022D000FEF73FFD4FF48050009069460848FFF735
:1022E00053FC08B1FEF735FD049404A90448059495
:1022F000FFF7D4FB002801D0FEF72BFD06B010BD80
:10230000701100200C4810B50A4901604FF41651B5
:102310004160002181600C22C160C0E9041281612A
:10232000C161FFF79CFC002803D0BDE81040FEF718
:1023300010BD10BD00480040B0110020FEE77047FE
:102340007047000070B586B000F070F8294800248E
:1023500004638470C4700472C471C460C461846115
:10236000446144708471214600F134025454491C84
:10237000C9B20829FAD3047144718462046200F07E
:1023800077FC00F04BFC00F015FC00F0B1FC00F015
:10239000D5FC80261848CDE901064FF6FF70009065
:1023A00003253F23154A00211548CDE9034500F0D8
:1023B000CFF805AA13A13F2000F0C4F91548CDE9D4
:1023C00001064FF6FE700C4A00903E23121F0021BA
:1023D0001148CDE9034500F0BBF805AA0FA13E2046
:1023E00000F0B0F900F023F806B0BDE87040FFF748
:1023F000A7BF000080000020E0140020DC160020B1
:10240000D12E000875432F4F532D49492049646C44
:1024100065000000E0120020052F000875432F4FD3
:10242000532D494920537461740000007047704770
:1024300070B5144CE079012822D1FDF7C1FE0546A4
:10244000A07820B1401E10F0FF00A07013D1E078FA
:1024500088B900F0B7FC0C48617950F82100A062FF
:102460002279914207D0C16B491CC163E068401CCE
:10247000E060FDF7C1FE2846BDE87040FDF7A4BE50
:1024800070BD000080000020E016002010B5094C4F
:10249000E07900280CD100F095FC607906492071A4
:1024A00051F82000A0622062BDE81040FDF78FBE09
:1024B00010BD000080000020E016002070470000E2
:1024C0002DE9FE431C4615460F4680463F2B02D998
:1024D0002A20BDE8FE83FDF773FE1A49097819B179
:1024E000FDF772FE3C20F4E7174E56F8241019B1A0
:1024F000FDF76AFE2820ECE7012146F82410FDF7DD
:1025000063FE00232A463946404600F097F900252D
:102510000146009501952B462A462046029500F07B
:1025200061FC070007D0FDF74BFE46F82450FDF78D
:102530004BFE3846CDE7054800780128F9D100F078
:102540001DFCF6E782000020E01600208700002036
:102550002DE9FF4F83B01C46DDE91386DDE91197B5
:1025600092468B463F2B03D92A2007B0BDE8F08F57
:10257000FDF726FE1C49097819B1FDF725FE3C2020
:10258000F3E71A4D55F8241019B1FDF71DFE282068
:10259000EBE7012145F82410FDF716FE32463946D7
:1025A000484600F0F7FC334652465946039800F07F
:1025B00045F90097CDE9018601464A462046109B21
:1025C00000F010FC060008D0FDF7FAFD002145F8E8
:1025D0002410FDF7F9FD3046C7E7054800780128CB
:1025E000F9D100F0CBFBF6E782000020E0160020D6
:1025F00087000020704700002DE9F0470546454858
:10260000007810B14020BDE8F0873F2D04D005D3FD
:10261000FF2D03D02A20F6E73E20F4E7FDF7D0FD9A
:102620000746FF2D03D13C48006890F83650DFF88C
:10263000EC9059F825405CB1012C0ED094F838206C
:10264000374994F83930885C984388540AD00FE0B1
:102650003846FDF7B9FD4320D5E73846FDF7B4FD10
:102660003D20D0E72F4894F83A200178914301703B
:10267000E16911B1204600F078FA216A11B12046D3
:1026800000F083FAA06A08B100F0B8FA4FF0000831
:10269000C4F83080244E84F8348084F83580307853
:1026A000FF2801D2401C30703846FDF78DFD00F048
:1026B0005BFAFDF785FD0746307808B1401E3070A3
:1026C000204600F03DF819490878401E087049F886
:1026D0002580A169404691B160694861D4E905014E
:1026E0008161134801686161046012A02065384669
:1026F000FDF76AFD10480078012806D007E06169FF
:1027000088610E4960690860EBE700F037FB002044
:1027100079E7000082000020A0000020E0160020E1
:10272000B4000020860000208300002088000020E4
:10273000A40000203F00000087000020AC00002023
:102740007047704770B50E46054614463F2803D9BA
:10275000FF2D01D02A2004E02EB11248007820B1CC
:102760001220107070BD0C20FBE7FDF729FD01461B
:10277000FF2D03D10C48006890F836500B4850F8F4
:102780002500432540B1012806D006650846FDF71F
:102790001BFD0020207070BD0846FDF715FD25705B
:1027A00070BD000082000020A0000020E016002084
:1027B000704770472DE9F0410C4605463F2804D983
:1027C000FF2D02D02A20BDE8F08144B10020206016
:1027D0006060FDF7F5FC0146FF2D02D005E0092001
:1027E000F1E71448006890F83650134850F8250077
:1027F00058B1012809D0027CD2070BD0D0E902766B
:1028000000250846FDF7E0FC0AE00846FDF7DCFC81
:102810004320D8E70846FDF7D7FC4520D3E76D1CD9
:1028200001CF0028FBD0A8002060701B80006060F2
:102830000020C8E7A0000020E016002010B5141FFB
:1028400000232360A2F108034FF480541C601B1F77
:1028500015241C601B1F14241C601B1F13241C60E8
:102860001B1F12241C601B1F11241C601B1F102423
:102870001C601B1F09241C601B1F08241C601B1FDD
:1028800007241C601B1F06241C601B1F05241C60E2
:102890001B1F04241C601B1F03241C601B1F02241D
:1028A0001C601B1F01241C601B1F24061C601B1FB7
:1028B0001860A2F15000314B0360001F4FF012333B
:1028C0000360001F4FF003330360001F4FF002331B
:1028D0000360001F5B100360001F01603121001FB7
:1028E0000160001F30210160001F29210160001FCD
:1028F00028210160001F27210160001F262101609F
:10290000001F25210160001F24210160001F2321D9
:102910000160001F22210160001F21210160001FB2
:1029200020210160001F19210160001F1821016092
:10293000001F17210160001F16210160001F4FF0CA
:1029400011310160001F19010160001F4FF00931B2
:102950000160001FD9000160001F4FF007310160C6
:10296000001F4FF006310160001F4FF0053101607C
:10297000980042F8C40D104610BD0000ED2E00086E
:1029800070B504463F2804D005D3FF2C03D02A207D
:1029900070BD472070BDFDF713FC03461D48FF2C9A
:1029A000006805D090F83600A04204D1012503E06C
:1029B00090F83640FAE70025174850F8240058B13F
:1029C00001280ED090F83820144C90F83960A15CA2
:1029D000B143A1540AD00FE01846FDF7F5FB48209B
:1029E00070BD1846FDF7F0FB432070BD0C4990F810
:1029F0003A400A78A2430A7010F8341F41F00801E7
:102A000001701846FDF7E0FB0DB100F0B7F90020AA
:102A100070BD0000A0000020E0160020B4000020DF
:102A2000860000207047000070B504461348007807
:102A3000002821D11248007800281DD1002C1BD07D
:102A4000FDF7BEFB03460F480F4D016891F83800B3
:102A500091F839602A5CB2432A5405D10B4891F8A9
:102A60003A500278AA43027018460C63FDF7ACFB9B
:102A7000BDE8704000F082B970BD00008200002007
:102A800083000020A0000020B40000208600002069
:102A90002DE9F04100F04CF8FDF792FB234D296B36
:102AA000491C2963FDF790FBE87901283BD1687A3E
:102AB0000126002720B1012835D0022802D06F72EC
:102AC000EC6A2CE06E72FBE7FDF77AFB216B19B321
:102AD000491E216320D194F8341011F0370F06D02D
:102AE00001F0C80184F8341084F8356001E084F8FE
:102AF000357094F8341009070ED494F83A10AA7976
:102B00001143A971094994F83820343194F839C037
:102B10008B5C43EA0C038B546469FDF755FB94F816
:102B200036003F28D0D1BDE8F081000080000020B1
:102B30007047000010B5FEF7BDFD4FF47A71B0FB91
:102B4000F1F0401EB0F1807F0AD24FF0E0214861E1
:102B5000044AF02082F8140D0020886107200861E3
:102B600010BD00000FE000E0704710B590F838206D
:102B700090F839408B18DA7AA243DA7204D18A7A53
:102B800090F83A0082438A7210BD70B510F8383F51
:102B900084784578086809E0C618F27AAA43F27288
:102BA00002D1827AA243827251F8040F0028F3D135
:102BB00070BD000010B550210D4800F08FF80020C6
:102BC0000B4A0346411C02EB00108CB202EB0414CA
:102BD0000370446007A4C46088B20428F2D302EBF7
:102BE000001004A103704360C1600348026010BD7F
:102BF000001C00203F000000BC000020D0E90012B3
:102C000000232AB1116001B14A6080688362704775
:102C1000C26800295160F8D04B60F6E710B5F0218A
:102C2000104800F05BF800200E490346421C00EB00
:102C3000400094B201EBC00004EB440401EBC40477
:102C40000370446008A4446190B20928EED300EBFD
:102C5000400001EBC00004A20370436042610348DE
:102C6000016110BDF01100203F0000008000002035
:102C700010B54FF48461154800F030F84FF48071BE
:102C8000134800F02BF8114A0020411C00EB4004CF
:102C900004EBC000CBB203EB430402EBC00004EB37
:102CA000C30302EBC30343610A4B0365C8B20B289D
:102CB000EBD300EB400101EBC00002EBC0000021B0
:102CC0000365416104484262C16210BDE017002003
:102CD000E0160020682C000880000020002203E09D
:102CE000491E00F8012B89B20029F9D17047000074
:102CF00010B578210E48FFF7F1FF0D49002000BF05
:102D000000EB400201EBC20202F118035360401CC9
:102D100008A380B253610428F2D300EB400001EB1A
:102D2000C0000022426003A242610348016010BD5E
:102D3000501C00203F000000C000002010B56021A2
:102D40000C48FFF7CBFF0B4A0020411C8BB200EB75
:102D5000400003EB430302EBC30342F8303088B278
:102D60000328F2D300EB4000002142F83010024863
:102D7000026010BDC81C0020C400002070B5FDF723
:102D80001FFA0E4C0546A07898B9E07888B900F093
:102D900019F80B49607951F82010A162227990420C
:102DA00007D0C86B401CC863E068401CE060FDF7BA
:102DB0001EFA2846BDE87040FDF706BA80000020E4
:102DC000E01600200649054A01F134038879105CB9
:102DD0001B5CD25C02EBC000487170475250000887
:102DE000800000202DE9F05F9846DDE90ABA91469F
:102DF0000D460746FDF7E4F9324E746A002C5CD0AC
:102E000061691C347162FDF7DFF944F81C5CA77638
:102E1000002525766576656144F810BC44E906A96D
:102E20000C9824F80C0C24F80A8CE577FA08227721
:102E300007F00701012000FA02F2E176A27788404C
:102E4000607725606560E560A5602562A5626562C2
:102E50001DA0E562C4E90C5000201C3C04EB80017D
:102E6000401C4D6510F0FF00F8D02046FFF726FB10
:102E70002046FFF7BFFBFDF7A3F90146134840F8D2
:102E80002740F06AC4E9050500B18461F46294F852
:102E90003A00B2791043B0710A4814F8382F343030
:102EA0006478835C23438354307A401C3072084634
:102EB000FDF78AF90020BDE8F09FFDF785F9422073
:102EC000F9E70000800000203F000000E01600202D
:102ED000054C00BFFDF774F9E169491CE161FDF79C
:102EE00073F9FFF72EFCF5E780000020044810B5C9
:102EF0000068FFF75DFCBDE81040FF20FFF77CBBDA
:102F0000A0000020144C02E0C820FFF78DFD60787F
:102F10000028F9D0642160690025B0FBF1F0606100
:102F200018B92570FF20FFF72BFDFDF749F9E1697E
:102F3000C4E90615FDF748F9D4E90510B0FBF1F036
:102F4000C0F164002070FFF734FC00F007F8642043
:102F5000FFF76AFDE9E70000800000207CB50C4D1A
:102F6000002469462046FFF725FC58B955F824008F
:102F700040B1012806D0D0E9021201EB8201816440
:102F80000199C164641CE4B23F2CEAD97CBD000005
:102F9000E0160020D30707D0920705D500220029AC
:102FA00002D004C0491EFAE7704700000249012020
:102FB000087002490870704749000020480000204E
:102FC0002DE9F0412DED0A8B84B06846FEF70BFF2A
:102FD000C8B1BDF8000040BA05B2BDF8040040BA5F
:102FE00004B2BDF8020040BA06B24FF40040854278
:102FF00001DB6D1C2DB2844201DB641C24B28642CD
:1030000001DB761C36B29FEDFE8BB0EE480AF0EE87
:10301000680A01F011FAB0EE401AF0EE601AB0EE54
:10302000419AF0EE619A3046FDF786FA884648EC00
:10303000100B064653EC192B51EC100BFDF70AFA56
:1030400041EC190BB0EE480AF0EE680A01F090F975
:10305000B0EE40AAF0EE60AA2046FDF76DFA0F46EA
:1030600047EC100B044653EC1A2B51EC100BFDF7F8
:10307000F1F953EC192BFDF7E7F941EC190BB0EE20
:10308000480AF0EE680A01F073F9B0EE40AAF0EEDB
:1030900060AAB0EE480AF0EE680A01F0CDF9B0EE91
:1030A000401AF0EE601A48EC106B53EC112B51EC07
:1030B000100BFDF7CFF953EC1A2BFDF7CBF941ECD0
:1030C0001A0BB0EE480AF0EE680A01F0B5F9B0EE5E
:1030D00040BAF0EE60BAB0EE480AF0EE680A01F0CD
:1030E000ABF947EC114B53EC102B51EC110BFDF7E6
:1030F000B1F953EC1B2BFDF7ADF941EC1B0BB0EE16
:10310000480AF0EE680A01F033F9B0EE40CAF0EE7A
:1031100060CA2846FDF710FA53EC1C2BFDF79AF90C
:1031200053EC1B2BFDF7EFF853EC1A2BFDF7EBF8E4
:1031300041EC100BB0EE491AF0EE691A01F020F8DC
:1031400051EC100BFDF71CFA00EE100AF6EE000A27
:1031500020EE209A19EE100AFDF7FFF941EC100B52
:1031600001F06AF9B0EE401AF0EE601AB0EE41BA22
:10317000F0EE61BAB0EE480AF0EE680A01F05CF9D0
:10318000B0EE401AF0EE601AB0EE41AAF0EE61AA7D
:10319000B0EE480AF0EE680A01F04EF953EC1A2B33
:1031A00051EC100BFDF756F953EC1B2BFDF752F9C0
:1031B00041EC1A0B19EE100AFDF7CFF941EC100B98
:1031C00001F0D6F8B0EE40BAF0EE60BAB0EE480AC0
:1031D000F0EE680A01F0CCF8B0EE40CAF0EE60CA3A
:1031E000B0EE480AF0EE680A01F0C2F8B0EE401AFC
:1031F000F0EE601A53EC1C2B51EC110BFDF72AF981
:1032000053EC1B2BFDF726F953EC1A2BFDF77BF83B
:10321000FDF7B6F97C4C206119EE100AFDF79DF917
:1032200041EC100B01F008F9B0EE401AF0EE601A14
:10323000B0EE41AAF0EE61AAB0EE480AF0EE680ADC
:1032400001F096F8B0EE401AF0EE601AB0EE41BA16
:10325000F0EE61BAB0EE480AF0EE680A01F0ECF860
:1032600053EC1B2B51EC100BFDF7F4F853EC1A2B1D
:10327000FDF7F0F841EC1A0B19EE100AFDF76DF9A5
:1032800041EC100B01F074F8B0EE40BAF0EE60BA09
:10329000B0EE480AF0EE680A01F0CEF8B0EE40CA8F
:1032A000F0EE60CAB0EE480AF0EE680A01F060F88D
:1032B000B0EE401AF0EE601A53EC1C2B51EC110BDF
:1032C000FDF7C8F853EC1B2BFDF7C4F853EC1A2B91
:1032D000FDF7BAF8FDF754F9606119EE100AFDF731
:1032E0003CF941EC100B01F0A7F8B0EE401AF0EEFB
:1032F000601AB0EE41AAF0EE61AAB0EE480AF0EE14
:10330000680A01F099F8B0EE401AF0EE601AB0EEDB
:1033100041BAF0EE61BAB0EE480AF0EE680A01F088
:1033200027F853EC1B2B51EC100BFDF793F853ECE3
:103330001A2BFDF78FF841EC1A0B19EE100AFDF766
:103340000CF941EC100B01F013F8B0EE40BAF0EEBE
:1033500060BAB0EE480AF0EE680A01F009F8B0EE83
:10336000401AF0EE601AB0EE41CAF0EE61CAB0EE5B
:10337000480AF0EE680A01F05FF853EC1C2B51ECA0
:10338000100BFDF767F853EC1B2BFDF763F853ECBC
:103390001A2BFCF7B8FFFDF7F3F8A06119EE100A3D
:1033A000FDF7DBF841EC100B00F0E2FFB0EE40AAB5
:1033B000F0EE60AAB0EE480AF0EE680A01F03CF8C0
:1033C000B0EE40BAF0EE60BAB0EE480AF0EE680A2D
:1033D00001F032F853EC1B2B51EC100BFDF73AF8CF
:1033E00053EC1A2BFDF736F841EC1A0B19EE100AC4
:1033F000FDF7B3F841EC100B01F01EF806E00000F9
:10340000000000000000000000000020B0EE409A24
:10341000F0EE609AB0EE480AF0EE680A00F0A8FFFD
:10342000B0EE40BAF0EE60BAB0EE480AF0EE680ACC
:1034300000F09EFFB0EE401AF0EE601A53EC1B2B2A
:1034400051EC110BFDF706F853EC192BFDF702F8C0
:1034500053EC1A2BFCF7F8FFFDF792F8E06104B08B
:10346000BDEC0A8BBDE8F0817047000018B4DFEDB9
:10347000291A2748AA2220EE210A0270052242704A
:10348000BDEEC00AAF22827010EE104A012220EE7B
:10349000A10AC270ADF800409DF801404471BDEE34
:1034A000C00A9DF80040847110EE104A21EE210AF6
:1034B000ADF800409DF80140C471BDEEC00A9DF812
:1034C0000040047210EE104A0023ADF800409DF851
:1034D000014044729DF80040194684720C0EC4727B
:1034E0000C0C04730C0A447381731A46C273027481
:1034F0000C22112102710022845C521C2344DBB295
:103500008A42F9DB435418BC0148491C00F0D6BA82
:10351000E80000200000C8423FB42848AA21122237
:10352000017005214170AF2181700221C1709DF8A9
:10353000011041719DF8001081719DF80510C17155
:103540009DF8041001729DF8091041729DF8081051
:1035500081729DF80D10C1729DF80C1001739DF8D9
:10356000191041739DF8181081739DF81D10C173D7
:103570009DF81C1001749DF8211041749DF82010D5
:1035800081749DF82510C1749DF8241001759DF873
:10359000291041759DF828108175002317210271AB
:1035A0000022845C521C2344DBB28A42F9DB435480
:1035B00004B0024830BC491C00F080BAE80000208A
:1035C0002DE9F0470C4D1E461746884681460024DB
:1035D00033463A4641464846FEF77CFD002809D06E
:1035E0006968002906D02246641C042A02DC491EB0
:1035F000FDD1EDE7BDE8F0876800002010B5FCF7CD
:10360000DFFD074A1178491C1170FCF7DDFDFFF75B
:103610003FFAFEF70DFFBDE81040FDF705BF0000C3
:103620008200002030B593B030216846FCF760FE80
:1036300014210CA8FCF75CFE1A480025016841F033
:1036400080510160006800F08050119016480168B8
:1036500041F4804101600068022400F48040119030
:1036600001200090000401908001CDE9064019205E
:1036700008904FF4A870CDE9090404200B90684627
:10368000FEF74AF80CA90F2081E831004FF4A05052
:103690000F90E002109005210CA8FDF751FF13B028
:1036A00030BD00004038024000700040054801680D
:1036B00041F47001016003494FF0006080390860F7
:1036C0007047000088ED00E0F0B50268254C264DFB
:1036D000264E274F274B4FF0804CA04209D0604523
:1036E00007D0A84205D0B04203D0B84201D09842DA
:1036F00004D122F0700E4A6842EA0E02A0421BD0AA
:10370000604519D0A84217D0B04215D0B84213D0A6
:10371000984211D0184DA8420ED0184DA8420BD097
:10372000174DA84208D0174DA84205D0164DA84203
:1037300002D0164DA84203D122F44075CA682A432C
:103740004D6922F080022A4302608A68C2620A68D8
:103750008262A04201D0984201D10969016301212E
:103760004161F0BD0000014000040040000800403D
:10377000000C0040000401400040014000440140B2
:103780000048014000180040001C0040002000409C
:1037900010B5846842EA032224F47F440A4322439A
:1037A000826010BD826822F070020A4342F0070175
:1037B0008160704710B5036A046A24F00104046252
:1037C000846924F0F00444EA021423F00A020A4354
:1037D0008461026210BD10B5036A23F01003036216
:1037E0008369046A23F4704343EA023224F0A0039D
:1037F00043EA01118261016210BD0000FFF79AF9EE
:10380000FDF7A8FAFDF79AFA50BB1748B0F9041073
:1038100000EE101AB0F90210B0F90000B8EEC04A7C
:1038200000EE101AF8EEC03A00EE100A0F48B8EE9B
:10383000C03AB0F9041000EE101AB0F90210B0F955
:103840000000F8EEC02A00EE101AB8EEC02A00EE12
:10385000100A0748F8EEC01A90EC030AFDF786F844
:103860000120FFF7E1F8CBE7620000204A000020CA
:10387000D00000202DED028B86B0FFF75BF9274EBC
:10388000274C9FED288A284DB4F90430B6F904007E
:1038900000EE103AB6F90210B6F90020B8EEC00AF0
:1038A000CDE9031020EE080ABDEEC00A10EE103A72
:1038B0001BB2CDE90132B4F9020000EE100AB8EEF5
:1038C000C00A20EE080ABDEEC00A10EE100A00B2CF
:1038D0000090B4F90000B5F9042000EE100AB5F923
:1038E0000210B8EEC00A20EE080ABDEEC00A10EEC3
:1038F000100A03B2B5F90000FFF70EFEFDF71EFA3D
:1039000040B90A4890ED001AD0ED020A90ED010A84
:10391000FFF7ACFD0A20FFF787F8B5E7620000204B
:1039200056000020F1FF793D4A000020DC00002015
:103930002DE9F041044600680169E26821F4405134
:10394000114301612169A068E2690843616911437B
:1039500008432168CA6849F20C639A430243CA606B
:1039600020684169A26921F4407111434161E06915
:10397000192764253226B0F5004F354A35492068AD
:103980004FF0000806D0884201D0904236D1FDF7B2
:1039900081FE35E0884201D0904202D1FDF77AFEE7
:1039A00001E0FDF767FE61684A18A0FB070148EBDC
:1039B0000803FCF765FC0146B0FBF5F00201B1FB22
:1039C000F5F06FF01803584301EB800006EBC000E0
:1039D000B0FBF5F000F0F80002EB4002B1FBF5F0AF
:1039E000584301EB800006EBC000B0FBF5F000F09F
:1039F0000700216810448860BDE8F081FDF73AFEB9
:103A000061688B0F8A00A0FB0701FCF739FC0146B7
:103A1000B0FBF5F06FF01802504301EB800006EBAD
:103A20000010B0FBF5F000F0F002B1FBF5F002EB96
:103A30000012B1FBF5F06FF01803584301EB800062
:103A400006EB0010B0FBF5F000F00F00D1E700002E
:103A500000140140001001402DE9F041984617463E
:103A60000E460446069D1DE0681C1BD02DB1FDF7D7
:103A7000E1FAA0EB0800A84214D92068C16821F43B
:103A8000D071C1602068416921F0010141612020AD
:103A900084F8390084F83A00002084F838000320C4
:103AA000BDE8F0812068006836EA000004D00020FC
:103AB000B842D9D00020F3E70120F9E70A460146D1
:103AC0004FF6FF730148FEF731B90000B011002036
:103AD000FEE700000FB4054B10B503A9044A029895
:103AE00001F060F910BC5DF814FB0000214F0008E4
:103AF000C800002003B401984100009850EAC1209A
:103B000018BF04204A0D18BF40F0010040F2FF72B8
:103B1000B2EB515F08BF40F00200012808BF05204A
:103B200002B070470907090E002804DB00F1E0200D
:103B300080F80014704700F00F0000F1E02080F8DA
:103B4000141D70470000000070B5C1482DED020B38
:103B50002DED0E8B82B0119D25F000449FEDBEDB54
:103B60009FEDBFEB84423EDBA4F140511098A1F1E0
:103B70007F6108430FD0BC48844202DC28D11098F2
:103B800030B39DED100B02B0BDEC0E8B02B0BDE862
:103B9000704001F0BDB89DED100B53EC1D2B51ECA6
:103BA000100BFCF757FC9DED100B41EC180B53EC80
:103BB0001E2B51EC100BFCF74DFC53EC182BFCF7B3
:103BC000A2FB41EC100B02B0BDEC0E8B02B070BD3D
:103BD000012001F0E1F802B0BDEC0E8B02B0BDE8AF
:103BE000704001F0A9B8A1489FEDA18B844256DA3C
:103BF0009DED100BB4F1795F0ADA51EC100BFFF771
:103C000079FF042808BF01F0A7F89DED100BDAE753
:103C100053EC102B51EC100BFCF71CFC41EC190B76
:103C200095480621B0EE490AF0EE690A784400F0A2
:103C30005BFF53EC192B51EC100BFCF70BFC41EC28
:103C40001A0B8E48B0EE490AF0EE690A0421784456
:103C500000F04AFF53EC192B51EC100BFCF7FAFB68
:103C600053EC182BFCF74FFB41EC100B51EC1A0BEB
:103C700053EC102BFCF77BFDCDE900019DED000B13
:103C800053EC102B9DED100B51EC100BFCF7E2FBED
:103C90009DED101B53EC112BFCF735FBD2E09DED95
:103CA000100B51EC100B01F02FF953EC182BFCF713
:103CB000CEFB9FED730BCDE9000153EC102B9DED76
:103CC000000B51EC100BFCF7C5FB41EC190B6E48D7
:103CD0000621B0EE490AF0EE690A784400F004FFCC
:103CE00053EC192B51EC100BFCF7B4FB41EC1B0B04
:103CF0006648B0EE490AF0EE690A0421784400F003
:103D0000F3FE53EC192B51EC100BFCF7A3FB53EC17
:103D1000182BFCF7F8FA41EC1C0B51EC190B01F0D5
:103D200055F941EC180B5A489FED5BABA04222DCE1
:103D300053EC1C2B51EC1B0BFCF719FDCDE90001DA
:103D40009DED000B51EC180B53EC102BFCF782FB94
:103D500053EC182BFCF7D7FA53EC1A2BFCF77AFB31
:103D600053EC1D2BFCF770FB53EC1E2BFCF76FFB89
:103D700041EC100B5FE08DED008B002000909DED7D
:103D8000000B51EC180B53EC102BFCF7BCFA9DED1B
:103D9000000B41EC1E0B53EC102B51EC100BFCF7FD
:103DA00059FB53EC192BFCF752FB53EC1E2BFCF781
:103DB000DEFC41EC190B53EC1C2B51EC1B0BFCF7FC
:103DC000D6FC41EC1B0B53EC1A2B51EC190BFCF7F6
:103DD00041FB53EC1D2BFCF73AFB41EC190B53EC68
:103DE0001A2B51EC180BFCF735FB53EC1B2BFCF793
:103DF00031FB53EC192BFCF727FB9DED000B41EC3D
:103E0000180B53EC1A2B51EC100BFCF723FB9FED16
:103E1000249B53EC192BFCF71AFB41EC100B51ECD3
:103E2000180B53EC102BFCF70FFB53EC192BFCF782
:103E30000EFB41EC100B002D3FF7C5AE51EC100B03
:103E400081F0004141EC100BBDE6000000000000D5
:103E50000000F03F00000000075C143326A6913CF0
:103E6000182D4454FB21F93F0000F07F0000E03F93
:103E7000000000000000F03F28150000361500008B
:103E8000000000000000E03F7A14000088140000E9
:103E90003333EF3F0000000000000000000000404E
:103EA000182D4454FB21E93F70B59B482DED020BC2
:103EB0002DED068B079D25F00044A04218DC9748A5
:103EC000844202DC0AD1069840B19DED060BBDECA0
:103ED000068B02B0BDE8704000F01ABF002DCCBFC9
:103EE0009FED8F0B9FED900BBDEC068B02B070BD6C
:103EF0008F48A04215DD8F48A042D8BF4FF0FF3455
:103F000058DD9DED060B51EC100BFFF7F3FD042877
:103F100008BF00F021FF9DED060BBDEC068B02B043
:103F200070BD9DED060B51EC100B00F0EDFFCDE9DF
:103F3000060181489FED828BA0423CDD8248A04271
:103F40001FDD00249FED82AB9DED060B53EC1A2B79
:103F500051EC100BFCF7D7F99DED060B41EC190B5A
:103F600053EC1A2B51EC100BFCF774FA53EC182B92
:103F7000FCF76AFA53EC192BFCF7F9FBCDE90601C3
:103F800049E09DED060B012453EC182B51EC100B6E
:103F9000FCF7B9F99DED060B41EC190B53EC182B0E
:103FA00051EC100BFCF750FA53EC192BFCF7DFFB2C
:103FB000CDE906012FE06848A0421FDD02249FEDF5
:103FC000689B9DED060B53EC192B51EC100BFCF785
:103FD00041FA53EC182BFCF796F99DED060B41ECDA
:103FE000180B53EC192B51EC100BFCF72DFA53EC7A
:103FF000182BFCF7BCFBCDE906010CE09DED060B90
:10400000032453EC102B9FED580B51EC100BFCF7D5
:10401000AEFBCDE906019DED060B53EC102B51ECE8
:10402000100BFCF717FA41EC180B53EC182BFCF7AC
:1040300011FA41EC190B4E480621B0EE490AF0EE98
:10404000690A784400F050FD53EC182B51EC100B2A
:10405000FCF700FA41EC180B4648B0EE490AF0EEC6
:10406000690A0521784400F03FFD53EC192B51EC0F
:10407000100BFCF7EFF941EC100B51EC180B53EC63
:10408000102B002C0EDAFCF73EF99DED061B53ECCD
:10409000112BFCF7DFF99DED061B53EC112BFCF700
:1040A000D6F935E0FCF72FF99DED061B53EC112BEB
:1040B000FCF7D0F941EC100B2F48784400EBC4001A
:1040C00090ED001B51EC100B53EC112BFCF7BCF9DD
:1040D0009DED061B53EC112BFCF7B6F941EC100BD0
:1040E0002648784400EBC40090ED001B51EC100B07
:1040F00053EC112BFCF7ABF941EC100B002DA2BFD8
:10410000BDEC068B02B070BD51EC100B81F000418C
:1041100041EC100B01E70000000010440000F07FAC
:10412000182D4454FB21F93F182D4454FB21F9BFAD
:104130000000DC3F0000203E0000F33F00000000D4
:10414000000000000000F03F0000E63F000000001B
:10415000000000000000004000800340000000005C
:10416000000000000000F83F000000000000F0BF69
:10417000CA110000801100000A110000C2100000E6
:1041800070B56B4E2DED040B2DED028B82B0DDF87A
:104190001CC0DDE905235C422CF000411C4341EAD0
:1041A000D474049D22F00040B44205D86C422C43E4
:1041B00040EAD474B4420BD99DED061B9DED040B6F
:1041C00002B0BDEC028B04B0BDE8704000F0AABDA7
:1041D000ACF14054A4F17F641C430BD0022404EAE8
:1041E000AC7444EAD27405439FED538B9FED542B7E
:1041F00007D015E09DED040B51EC100B00F07CFE98
:1042000042E0002C11BF012C9DED040B02B0BDEC6F
:10421000028B04BF04B070BD022C38D0032C3BD0FD
:104220000B439FED491B9FED4A0B0AD0B14218D1B9
:10423000B04209D121F0804120F0804007910590E3
:104240000FE0002A15DA10E0434B7B44002C08BF36
:1042500093ED000B0DD0012C10D0022C17D0032CA5
:104260001AD0B0421DD1002A03DAB0EE410AF0EEB6
:10427000610A02B0BDEC028B04B070BD93ED000B7F
:1042800051EC100B81F0004141EC100BF1E7B0EE66
:10429000480AF0EE680AECE7B0EE420AF0EE620A75
:1042A000E7E7401A00153C28C8BF8DED000B19DC6C
:1042B000BCF1000FBEBF10F13C0F9FED290B8DED3F
:1042C000000B0FDB9DED060B53EC102B9DED040B4B
:1042D00051EC100BFCF74BFA00F016FE00F00CFE50
:1042E000CDE90001002C08BF9DED000BC1D0012CD1
:1042F00010D0022C9FED1C0B53EC102B9DED000BEE
:1043000051EC100B0DD0FCF79FF853EC182BFCF779
:104310009BF8B9E7019880F0004001909DED000BFB
:10432000A7E7FCF791F853EC182BFCF790F8ABE7F4
:104330000000F07F00000000182D4454FB210940CC
:10434000182D4454FB2109C0182D4454FB21F9BFFA
:10435000182D4454FB21F93F2210000000000000FA
:104360000000000000000000075C143326A6A13CFA
:1043700010B52F499FED2C1B2DED020B84B0059835
:1043800020F000408842D8BF9DED040B2DDD294967
:10439000884209D1049840B94FF0010000F0FCFCBC
:1043A00000F0CAFC06B010BD05DB9DED040B00F06B
:1043B000AFFC06B010BD68469DED040B00F0C0F8E0
:1043C00010F0030004BF9DED021B9DED000B0CD00F
:1043D00001280ED09DED021B9DED000B022817D089
:1043E000012000F0FDFB06B010BD00F0C5FA06B0DC
:1043F00010BD9DED021B9DED000B012000F0F0FBB8
:1044000051EC100B81F0004106B041EC100B10BDD7
:1044100000F0B2FA51EC100B81F0004106B041EC13
:10442000100B10BD000000000000000000000000A4
:10443000FB21E93F0000F07F10B52F499FED2C1BB9
:104440002DED020B84B0059820F000408842DCBFBF
:1044500000209DED040B32DD2849884209D10498E3
:1044600040B94FF0010000F097FC00F065FC06B089
:1044700010BD05DB9DED040B00F04AFC06B010BD3D
:1044800068469DED040B00F05BF810F0030011D0BE
:10449000012818D09DED021B9DED000B02281AD0BB
:1044A00000F06AFA51EC100B81F0004106B041ECCB
:1044B000100B10BD9DED021B9DED000B012000F0C7
:1044C0008FFB06B010BD9DED021B9DED000B00F0B3
:1044D00053FA06B010BD012000F082FB51EC100B26
:1044E00081F0004106B041EC100B10BD000000004F
:1044F0000000000000000000FB21E93F0000F07F09
:1045000010B52DED028BB1EEC08A18EE100A20F026
:104510000040C0F1FF40C00F0AD010EE100A20F09A
:104520000040C0F1FF40C00F04BF012000F034FC88
:10453000B0EE480ABDEC028B10BD00000000000088
:104540002DE9F14F04462DED020B2DED088B8AB0BD
:104550009FEDE70B80ED020B139EE74826F0004528
:1045600085420ADC9DED120B002084ED000B0AB0A1
:10457000BDEC088B03B0BDE8F08FE0489FEDE0ABE9
:104580009FEDE1BBA84247DDE14F9FEDE39B9FED2F
:10459000E48B9DED120B53EC1A2B51EC100B002EFB
:1045A0001CDDFBF751FF41EC100BBD4208D053EC72
:1045B0001B2B51EC100BFBF747FFC4E900010BE08C
:1045C00053EC192B51EC100BFBF73EFF53EC182B5F
:1045D000FBF73AFFC4E900010120C8E7FBF793FEAF
:1045E00041EC100BBD4208D053EC1B2B51EC100BCF
:1045F000FBF789FEC4E900010BE053EC192B51ECE9
:10460000100BFBF780FE53EC182BFBF77CFEC4E984
:1046100000014FF0FF30AAE7C348A84279DB9DEDC7
:10462000120B51EC100B00F06FFC41EC180B9FEDDE
:10463000C00B53EC102BFBF70DFF9FEDBF1B53EC92
:10464000112BFBF760FEFCF771F90746FBF774FFCF
:1046500041EC190B53EC1A2BFBF7FCFE53EC182B17
:10466000FBF7F5FE41EC180B53EC1B2B51EC190B2F
:10467000FBF7F0FEDFF8C8A241EC100B4FEA15582B
:104680000125FA4453EC102B51EC180BFBF7DCFE20
:10469000032DC4E900013DD0C1F30A5005EB4511DB
:1046A000A8EB00001139814234DA0AEB051BB0EEA9
:1046B00048AA9BED000BF0EE68AA53EC102B51ECCE
:1046C000190BFBF7C7FE41EC1B0B51EC1A0B53EC1B
:1046D0001B2BFBF7B9FE41EC180B51EC1A0B53ECFA
:1046E000182BFBF7B1FE53EC1B2BFBF7ADFE9BED3C
:1046F000020B41EC1A0B53EC102B51EC190BFBF78E
:10470000A9FE53EC1A2BFBF79FFE41EC100B6D1C1E
:10471000B8E70EE0002EA8BF3846BFF628AF94EDEC
:10472000000B51EC100B81F00041C4E9000178420C
:104730001DE7C6F3130040F4801EC6F30A50A0F232
:10474000F530471100F01F05C5F12000DDF848B035
:1047500008900020069007900520EC467949002D2E
:1047600007EB0002794408BF51F8221009D051F834
:10477000223001EB8201AB404A68089922FA01F12C
:104780001943A1FB0E26A1FB0B131A449A4234BF16
:104790000123002303EB06080CEB8003D3E901A6F9
:1047A0000E448E4234BF0121002192448A4411B14B
:1047B000924502D903E0924501D2012100E0002197
:1047C000C3E901A641444CF82010011EA0F10100EC
:1047D000C4DC029800F10050850F0298DDE9036700
:1047E0008000DDF81480FBF7A7FE41EC1A0B304681
:1047F000FCF78FF89FED541B53EC112BFBF72AFEAF
:1048000041EC1B0B3846FCF784F89FED511B53EC31
:10481000112BFBF71FFE41EC180B4046FCF779F813
:104820009FED4D1B53EC112BFBF714FE41EC190BC4
:1048300051EC180B53EC192BFBF765FD53EC1B2BBC
:10484000FBF761FD53EC1A2BFBF75DFDCDE9080189
:10485000002008909DED080B53EC1A2B51EC100B27
:10486000FBF7F2FD53EC1B2BFBF7EEFD53EC182B83
:10487000FBF7EAFD53EC192BFBF7E9FD9FED381B25
:1048800053EC112BFBF7E6FD9FED370B41EC180BBA
:1048900053EC102B9DED080B51EC100BFBF7DAFDE0
:1048A00053EC182BFBF72FFD9FED310B41EC180B50
:1048B00053EC102B9DED080B51EC100BFBF7CAFDD0
:1048C00053EC182BFBF71FFD41EC100B139810F065
:1048D000004F06D06D4251EC100B81F0004141ECCD
:1048E000100B284684ED000B41E60000000000009C
:1048F0000000000000000000FB21E93F7CD90240DD
:1049000000004054FB21F93F3163621A61B4D03D8D
:10491000FB21F93F000000000000601A61B4D03DA7
:104920007370032E8A19A33BFB213941000000005C
:1049300083C8C96D305FE43F000000000000E03F25
:10494000F20B0000400B0000000000000000103ED1
:10495000000000000000103C000000000000103AC1
:10496000182D4454FB21F93D3326A611460B113C6A
:1049700000000054FB21F93D10B52DED040B2DED89
:10498000088B82B0B0EE419AF0EE619A0B9820F05D
:1049900000449FED4BABB4F1795F11DA9DED0A0B4A
:1049A00051EC100BFBF7C2FF002801BFB0EE4A0A22
:1049B000F0EE6A0A02B0BDEC088B04BF04B010BD73
:1049C0009DED0A0B53EC102B51EC100BFBF742FD45
:1049D00041EC180B3C480621B0EE480AF0EE680A9C
:1049E000784400F081F853EC182B51EC100BFBF7D6
:1049F00031FD9DED0A0B41EC1B0B53EC192B51ECD7
:104A0000100BFBF727FD41EC190B53EC1B2B51EC62
:104A1000180BFBF71FFD53EC192BFBF715FD9FED52
:104A20002C0B41EC190B53EC102B51EC180BFBF732
:104A300011FD41EC100B2848844210DA53EC192B7D
:104A400051EC100BFBF700FD53EC1A2BFBF7FFFCAE
:104A500041EC100B02B0BDEC088B04B010BD1F4838
:104A6000A042BCBF9FED1E1B8DED001B06DBA4F515
:104A700000100190002000909DED001B51EC100BE8
:104A800053EC112BFBF7E0FC9DED000B41EC180BF8
:104A900053EC102B51EC1A0BFBF7D6FC41EC1A0B24
:104AA00053EC192B51EC180BFBF7CEFC53EC1A2BE3
:104AB000FBF7CDFC41EC100BCCE700000000000040
:104AC000000000000000F03F5C0800000000000053
:104AD000000000000000E03F3333D33F0000E93F17
:104AE000000000000000D23F70B504462DED028B9F
:104AF0004D1E00EBC500B0EE408AF0EE608A90EDEE
:104B0000000B35F0060017D053EC182B51EC100BAE
:104B1000FBF7A0FC41EC100B6D1E04EBC50090ED03
:104B2000001B51EC100B53EC112BFBF7ECFB41EC91
:104B3000100B35F00600E7D1022D36D0042D1CD025
:104B4000062D1CBFBDEC028B70BD53EC182B51EC35
:104B5000100BFBF77FFC94ED0A1B53EC112BFBF7BA
:104B6000D2FB53EC182BFBF775FC94ED081B53ECB0
:104B7000112BFBF7C8FB41EC100B53EC182B51EC3D
:104B8000100BFBF767FC94ED061B53EC112BFBF7A6
:104B9000BAFB53EC182BFBF75DFC94ED040B53ECC4
:104BA000102BFBF7B0FB41EC100B53EC182B51EC26
:104BB000100BFBF74FFC94ED021B53EC112BFBF792
:104BC000A2FB53EC182BFBF745FC94ED001B53ECB8
:104BD000112BFBF798FBBDEC028B41EC100B70BD69
:104BE00031B504462DED040B2DED0A8BB0EE41BA24
:104BF000F0EE61BA0B989DED0A0B20F00040B0F189
:104C0000795F0DDA51EC100BFEF774FF042808BF32
:104C100000F0A2F89DED0A0BBDEC0A8B05B030BD8B
:104C200053EC102B51EC100BFBF714FC41EC180B60
:104C30009DED0A0B53EC182B51EC100BFBF70AFC03
:104C400041EC190B2C48B0EE480AF0EE680A052139
:104C50007844FFF749FF9FED2ACBB0EE40AAF0EE73
:104C600060AA9CB353EC1C2B51EC190BFBF7F2FB25
:104C700041EC1C0B53EC1A2B51EC190BFBF7EAFB24
:104C80009FED210B41EC190B53EC102B51EC1B0B3E
:104C9000FBF7E0FB53EC192BFBF7D6FB53EC182B7F
:104CA000FBF7D8FB53EC1B2BFBF7CEFB53EC1C2B79
:104CB000FBF7CAFB9DED0A1B53EC112BFBF7C7FB5F
:104CC000BDEC0A8B05B041EC100B30BDFFE753EC97
:104CD0001A2B51EC180BFBF7BDFB53EC1C2BFBF70D
:104CE00012FB53EC192BFBF7B5FB9DED0A1B53ECA4
:104CF000112BFBF708FBE3E7EC06000000000000C7
:104D0000495555555555C5BF000000000000E03F0E
:104D100010B553EC102B51EC100BFBF7F4FA41ECEF
:104D2000100B10BD10B553EC112B51EC100BFBF711
:104D3000EAFA41EC100B10BD9FED050B10B553ECDA
:104D4000102B51EC100BFBF712FD41EC100B10BDBA
:104D500000000000000000009FED050B10B553ECB3
:104D6000102B51EC100BFBF775FB41EC100B10BD39
:104D7000000000000000001002E008C8121F08C177
:104D8000002AFAD170477047002001E001C1121FCC
:104D9000002AFBD1704700000149086070470000FD
:104DA000CC0000202DE9FF4F89B09B46044600252A
:104DB00006E025280BD05A460B999047641C6D1CC1
:104DC00020780028F5D10DB02846BDE8F08F0027E7
:104DD000B8460122474900E0074314F8013F203B51
:104DE00002FA03F00842F7D120782E2819D114F8DE
:104DF000010F47F004072A280ED06FF02F02207809
:104E0000A0F1300109290CD808EB880102EB41011F
:104E100000EB0108641CF2E70A98641C50F8048B4C
:104E20000A9020780028CED0642808D0692806D0BF
:104E300075281ED05A460B9990476D1C58E00A9968
:104E40004FF00A0901C90A91002802DA40422D21D7
:104E500002E0390504D52B218DF82010012103E053
:104E6000F90704D02021F7E78A4608AE0DE00021BB
:104E7000FAE70A994FF00A0901C90A91F7E749468A
:104E8000FBF79AFB303106F8011D0028F7D1ADEB96
:104E9000060000F12009780701D44FF00108C84549
:104EA00002DDA8EB090000E000208046002706E0B4
:104EB00008A85A46C05D0B9990476D1C7F1C57454A
:104EC000F6DB04E030205A460B9990476D1CB8F190
:104ED0000001A8F10108F5DC05E016F8010B5A46BF
:104EE0000B9990476D1CB9F10001A9F10109F4DC9F
:104EF000641C65E70928010010B541EC100BFEF7B2
:104F0000D3FF51EC100B10BD82B0CDE9000121F0B0
:104F1000004001909DED000B02B051EC100B70476A
:104F200038B504468DF80000022301226946024884
:104F3000FCF7FCFE204638BDB011002010EE100A30
:104F4000F6EE000A074960EE200AA1EB600000EED1
:104F5000100A20EE801AF7EE080A41EE400A20EE11
:104F6000800A7047DF59375F10B5FCF765FAFDF727
:104F7000E9F9FEF757FBFDF74DF9FDF771F9FDF77C
:104F8000C1F9FDF78DF90BA0FEF7A4FDFEF718F8A7
:104F9000FEF70CF80723094A00210948FDF790FAAB
:104FA0000623084A00210848FDF78AFAFDF76EFA41
:104FB000002010BD4466617364660000180900207B
:104FC0007538000818110020FD37000800B52DEDD8
:104FD000048B83B041EC190BFBF74AFC41EC180B36
:104FE00018EE100A18EE901A8DED008B002818BFED
:104FF0000120084320F00040C0F17F6000F1E04054
:10500000C00F14D019EE101A19EE900A8DED009B06
:10501000002918BF0121084320F00040C0F17F6043
:1050200000F1E040C00F04BF0120FFF7B5FE51ECD6
:10503000180B03B0BDEC048B00BD000000000000A5
:105040000000010203040607080900000000010235
:10505000030400000100020001000300010002003F
:105060000100040001000200010003000100020031
:105070000100050001000200010003000100020020
:105080000100040001000200010003000100020011
:1050900001000600010002000100030001000200FF
:1050A00001000400010002000100030001000200F1
:1050B00001000500010002000100030001000200E0
:1050C00001000400010002000100030001000200D1
:1050D00001000700010002000100030001000200BE
:1050E00001000400010002000100030001000200B1
:1050F00001000500010002000100030001000200A0
:105100000100040001000200010003000100020090
:10511000010006000100020001000300010002007E
:105120000100040001000200010003000100020070
:10513000010005000100020001000300010002005F
:105140000100040001000200010003000100020050
:105150000100000000000000555555555555C53F4C
:105160007D6FEB0312D6D4BF5544880E55C1C93F9D
:105170003B8F68B52882A4BF88B20175E0EF493F34
:1051800009F7FD0DE13D023F4B2D8A1C273A03C074
:10519000C88A599CE52A004059018D1B6C06E6BF60
:1051A00082922EB1C5B8B33F4FBB610567ACDD3FFE
:1051B000182D4454FB21E93F9BF681D20B73EF3F3E
:1051C000182D4454FB21F93FE2652F227F2B7A3CB6
:1051D000075C143326A6813CBDCBF07A8807703C6F
:1051E000075C143326A6913CC4EB98999999C9BFE2
:1051F000711623FEC671BCBF6D9A74AFF2B0B3BF17
:105200009AFDDE522DDEADBF2F6C6A2C44B4A2BFD6
:105210000D5555555555D53FFF8300922449C23F42
:105220006E204CC5CD45B73F513DD0A0660DB13F76
:10523000EB0D76244B7BA93F11DA22E33AAD903F88
:105240004C5555555555A53F7751C1166CC156BFA4
:105250009015CB19A001FA3EAD529C804F7E92BEB4
:10526000C4B1B4BD9EEE213ED43888BEE9FAA8BDD3
:10527000000000000000000000004054FB21F93F46
:105280003163621A61B4D03D0000601A61B4D03D50
:105290007370032E8A19A33B0000002E8A19A33BCA
:1052A000C14920259A837B390000000000000000DE
:1052B0006E83F9A22915444ED15727FCC0DD34F581
:1052C000999562DB4190433CAB6351FE61C5BBDE07
:1052D0003A6E24B7E0D24D42EA2E49061C92D1091B
:1052E0001CEB1DFE3EA729B1F53582E88444BB2E98
:1052F00026709CE9417E5FB439D69139F4395383E5
:105300008B5F849C3B28F9BDFF97F81F0F9805DE43
:105310008B112FEF1F6D0A5ACF7E366DB709CB2741
:10532000663F464F2DEA5F9EC7BA27757BF1E5EBD6
:10533000F739073DEA92528AB15FFB6B085D8D1F1A
:10534000A6F810111111813FD561C119A0012ABF22
:105350007DFEB157E31DC73EEB9C2B8AE6E55ABEA6
:105360007CD5CF5A3AD9E53D88530008000000208B
:10537000D0000000784D000858540008D0000020EC
:1053800058200000884D0008000000000000004088
:105390000AD7A33B6F12033A0000803F00000000D1
:1053A00000000000000000000000000000000000FD
:1053B00000000000000000000000000000000000ED
:1053C00000000000000000000000000000000000DD
:1053D00000000000000000000000000000000000CD
:1053E00000000000000000000000000000000000BD
:1053F000370000003700000001000000100000002E
:10540000000000000024F400000000000000000084
:10541000000000000000000000000000000000008C
:10542000000000000000000000000000000000007C
:10543000000000000000000000000000000000006C
:10544000000000000000000000000000000000005C
:08545000000000000000000054
:040000050800018965
:00000001FF
