:020000040800F2
:10000000302100209D010008C93200085D29000848
:10001000C5320008A111000869570008000000005F
:10002000000000000000000000000000174C000865
:10003000B91100080000000003020008254F000865
:10004000B7010008B7010008B7010008B7010008B0
:10005000B7010008154C0008B7010008B7010008F7
:10006000B7010008B7010008B7010008B701000890
:10007000B7010008B7010008B7010008B701000880
:10008000B7010008B7010008B7010008B701000870
:10009000B7010008B7010008B7010008B701000860
:1000A000B7010008B7010008B7010008B701000850
:1000B000B7010008B7010008B7010008B701000840
:1000C000B7010008B7010008B7010008B701000830
:1000D000B7010008B7010008B7010008B701000820
:1000E000B7010008B7010008B7010008B701000810
:1000F000B7010008B7010008B7010008B701000800
:10010000B7010008B7010008B7010008B7010008EF
:10011000B7010008B7010008B7010008B7010008DF
:10012000B7010008B7010008B7010008B7010008CF
:10013000B7010008B7010008B7010008B7010008BF
:10014000B7010008B7010008B7010008B7010008AF
:10015000B7010008B7010008B7010008B70100089F
:10016000B7010008B7010008B7010008B70100088F
:10017000B7010008B7010008B7010008000000003F
:10018000B7010008B7010008DFF80CD000F05EFBF3
:10019000004800472D6C00083021002006488047A9
:1001A00006480047FEE7FEE7FEE7FEE7FEE7FEE75C
:1001B000FEE7FEE7FEE7FEE70550000889010008BC
:1001C000EFF3108072B6704780F3108870472448B0
:1001D0004FF0FF010170002080F3098821480121C0
:1001E000017021484FF08051016062B6FEE71E4861
:1001F0004FF08051016070471B484FF08051016003
:10020000704772B62EF01F0E4EF0090EEFF3098004
:1002100050B11EF0100F08BF20ED108A203880E882
:10022000F00F12490968086000B5114880475DF871
:1002300004EB104810490A7802700C480F490A680C
:100240000260106890E8F00F20301EF0100F08BF19
:10025000B0EC108A80F309884EF0040E62B6704745
:1002600022ED00E0A600002004ED00E0AC0000203C
:10027000693B00089B0000209C000020B400002087
:100280002DE9F05F0546002092469B4688460646CB
:10029000814640241BE0284641464746224600F05E
:1002A000B0F953465A46C01A914110D31146184628
:1002B000224600F097F92D1A67EB01084F462246B7
:1002C0000120002100F08EF917EB00094E41201E9D
:1002D000A4F10104DFDC484631462A464346BDE826
:1002E000F09FD2B201E000F8012B491EFBD270470B
:1002F0000022F6E710B513460A4604461946FFF7F2
:10030000F0FF204610BD2DE9FE4F804681EA030034
:10031000C00F0C46009021F0004123F00045B8EBDF
:100320000200A94105D24046214690461C460B4694
:10033000024623F00040104347D0270DC7F30A00C0
:10034000C3F30A510290401A019040286BDAC3F3BC
:10035000130040F4801B0098924620B10023D2EB9A
:10036000030A63EB0B0B01985946C0F1400250465B
:1003700000F038F906460D4650465946019A00F0FD
:1003800050F910EB08006141002487EA115284EA19
:10039000E7731A4340D0009A62B3019A012A4FEAE8
:1003A000075215DC001B61EB02014FF0004202EA2C
:1003B0000752CDE90042001C41F5801132462B4620
:1003C00000F087F903B0BDE8F08F40462146F9E719
:1003D000001B61EB0201001C41F5801300185B411A
:1003E0002018A2F5001747EB030140EAD570B619B3
:1003F0006D4111E06D084FEA360645EAC0754FEAD7
:100400000752001B61EB0201001C41F580114908F5
:100410004FEA30000019514132462B4603B0BDE887
:10042000F04F00F047B90098012240000023D0EBC4
:10043000020263EBE073009821464FEAE074B8EBE8
:10044000000061EB0401E9E783F000435BE781F022
:10045000004158E72DE9FE4F81EA030404F000440F
:1004600021F0004100944FF0000B23F0004350EACC
:1004700001045ED052EA03045BD0C3F30A54C1F313
:100480000A552C44A4F2F3340194A0FB0254C1F3A6
:10049000130141F48011C3F3130343F4801301FBF0
:1004A000024400FB034E840A970A44EA815447EA57
:1004B0008357A4FB076802958D0A05FB07854FEA61
:1004C000932C04FB0C542705029D4FEA065847EA7B
:1004D0001637B5EB08056EEB070C870E920E47EA50
:1004E000811742EA8312A7FB0201B6EB0B0164EB12
:1004F00000042B0D43EA0C335E1844EB1C50DA4623
:100500005146E7FB0201C5F313044FEA0B3343EAFC
:1005100014534FEA0432019C43EA0603A4F10C048D
:100520000294009CCDE900B400F0D3F803B0BDE81C
:10053000F08F00200146F9E70EB5C10F80EAE070A8
:100540000844CA07002140F233438DE80E000A46F2
:100550000B4600F0BEF803B000BD00F0004230F0E2
:1005600000400AD0C10D01F56071C0F3160042EAE7
:100570000151C208400711437047002001467047EF
:1005800001F0004330B421F0004150EA010206D0EE
:100590000A0DA2F56072C1F31301002A02DC30BC1F
:1005A00000207047440F44EAC104C100E01830BC89
:1005B00000EBC25000F047B830B50B4601460020B2
:1005C0002022012409E021FA02F59D4205D303FA15
:1005D00002F5491B04FA02F52844151EA2F1010296
:1005E000F1DC30BD202A04DB203A00FA02F10020C1
:1005F00070479140C2F1200320FA03F31943904061
:100600007047202A04DB203A21FA02F000217047CB
:1006100021FA02F3D040C2F120029140084319466A
:100620007047202A06DBCB17203A41FA02F043EA52
:10063000E07306E041FA02F3D040C2F1200291409B
:100640000843194670470029A8BF7047401C49005D
:1006500008BF20F00100704710B4B0FA80FC00FA27
:100660000CF050EA010404BF10BC704749B1CCF152
:10067000200421FA04F411FA0CF118BF01212143DE
:100680000843A3EB0C01CB1D4FEA00614FEA102099
:1006900042BF002010BC704700EBC350104400293B
:1006A000A4BF10BC7047401C490008BF20F00100E7
:1006B00010BC704710B5141E73F1000408DA401C1A
:1006C00041F1000192185B411A4301D120F0010071
:1006D00010BD2DE9F04D92469B4611B1B1FA81F261
:1006E00002E0B0FA80F220329046FFF77BFF04462A
:1006F0000F4640EA0A0041EA0B0153465A460843B6
:1007000013D0114653EA010019D0C8F140025046F7
:10071000FFF777FF05460E46504659464246FFF71B
:1007200061FF084305D0012004E020463946BDE8BA
:10073000F08D0020054346EAE0762C4337430A98C3
:100740006305E40AA0EB08000022FD0A44EA4754CE
:100750000A3002D500200146E9E701051019694178
:10076000DDE9084500196941BDE8F04DA2E72DE932
:10077000F04D81EA030404F0004B21F000451446DB
:100780004FF0000A23F0004150EA050220D054EA5D
:1007900001021DD0C5F30A570246C5F31303C1F386
:1007A0001300C1F30A5640F4801543F48013A7EBFD
:1007B0000608101BD64608F2FD3873EB050002D37D
:1007C00008F1010801E092185B41B8F1000F03DA6B
:1007D00000200146BDE8F08D00204FF48011064650
:1007E00084460EE0171B73EB050705D3121B63EB62
:1007F000050306434CEA010C49084FEA3000921801
:100800005B4150EA0107EDD152EA030012D082EABF
:10081000040083EA0501084305D0101BAB4106D252
:100820000122002306E000224FF0004302E06FF0B7
:10083000010253101AEB06004CEB085110EB0A00B2
:1008400041EB0B01BDE8F04DFFF734BF064C074DFF
:1008500006E0E06840F0010394E807009847103490
:10086000AC42F6D3FFF794FC90700008B07000081B
:100870002DE9F04D00231A461B1A8A4103DB0020A4
:100880000146BDE8F08DC1F30A52C1F3130141F4F2
:1008900080154FF0000BD10702D100186D41521E98
:1008A0000027044640F2FF11384601EB620A3E463B
:1008B0008046024600204FF48011FFF7A2FEC219C5
:1008C0007141BB1846EB0100B4EB030C75EB000C57
:1008D00004D3E41A65EB000517460E46241908F107
:1008E00001006D4180463428E3DDF91946EB06002E
:1008F000091BA84103D24FF0FF32134601E000224A
:1009000013461BEB070046EB0A51BDE8F04DFFF71D
:10091000D1BE0EB540F2334102910021CDE9001164
:100920000A460B46FFF7D5FE03B000BD70B5C1F314
:100930000A5201F000450024C1F3130140F2FF33D5
:1009400041F480119A4201DA002070BD40F2334335
:100950009A42A2F2334203DC5242FFF752FE00E019
:1009600090402C43F1D0404270BD000000B52DED09
:10097000108BA1B0B0EE40AAF0EE60AAB0EE41BA82
:10098000F0EE61FAF0EE42BAB0EE62CAF0EE439ACF
:10099000F0EE638AB0EE449AFE4890ED000A20EE35
:1009A000000A8DED110A90ED000AFB48D0ED000A17
:1009B00020EE200AF0EE40EAF64890ED000AF748F3
:1009C000D0ED000A20EE200A8DED100AF14890EDDE
:1009D000000AF348D0ED000A20EE200A8DED0F0A40
:1009E000ED4890ED000A20EE000AB0EE40FA90EDDE
:1009F000000AEA48D0ED000A20EE200A8DED0E0A2A
:100A0000E54890ED000AE648D0ED000A20EE200A05
:100A10008DED0D0AE14890ED000A20EE000A8DED03
:100A20000C0A90ED000ADE48D0ED000A20EE200A04
:100A30008DED0B0A90ED000A20EE000A8DED0A0AFA
:100A40006FEEAF0A4BEEAB0A4CEE0C0AB0EE600A4A
:100A500006F0CEF8B0EE408A2FEE880AF0EE40FAAB
:100A60002BEE880AF0EE40BA2CEE080AB0EE40CA2F
:100A70009DED0D0ADDED100A30EE600AF0EE000A81
:100A800020EE200A8DED1A0A9DED0B0A3EEE800A3B
:100A9000F0EE000A20EE200A8DED190A9DED110AF4
:100AA00070EE4F0A9DED0C0A70EEC00A9DED0A0A29
:100AB00030EE800A8DED180A69EEA90A48EEA80A00
:100AC00049EE090AB0EE600A06F092F8B0EE408AEC
:100AD00029EE880AF0EE409A28EE880AF0EE408A65
:100AE00029EE080AB0EE409AB0EE000A69EE800ADC
:100AF0009DED0C0AB6EE001A31EE401A9DED0A0A81
:100B000031EE400A20EE800AF0EE000A68EEA01AEC
:100B1000DDED0E0A9DED0F1A70EEC10A01EEA00A7E
:100B2000F0EE000A69EE201ADDED0D0A9DED101AB7
:100B300070EE810A01EEA00A8DED1F0AB0EE000AE8
:100B400029EE801A9DED0E0ADDED0F0A30EE200A27
:100B500021EE000AF0EE000A28EEA01AF6EE000AD6
:100B600070EECF1ADDED0A0A71EEE00A01EE200AFE
:100B7000F0EE000A29EE201ADDED0B0A70EEEE0A07
:100B800001EE200A8DED1E0AB0EE000A29EE801A51
:100B90009DED0D0ADDED100A30EE600A21EE000A2F
:100BA000F0EE000A28EEA01ADDED0B0A70EEAE0A98
:100BB00001EE200AF0EE000A29EE201AF6EE000AF5
:100BC00070EECF1ADDED0C0A71EEE00A01EE200A9C
:100BD0008DED1D0ADDED1F0A20EEA01ADDED1E0AC7
:100BE00000EEA01AB0EE410A05F0E2FA8DED1B0A04
:100BF0009DED1D0A8DED1C0A9DED1B0AF0EE000A0D
:100C000020EE201ADDED0E0A9DED0F0A30EE800A6F
:100C100061EE000A9DED1C0AB0EE001A60EE011AAA
:100C20009DED0D0A9DED101A30EE410A41EE800A4D
:100C3000CDED170A9DED1B0AF0EE000A60EE200ACA
:100C4000B6EE000A30EE4F1A9DED0A0A31EE400A68
:100C500060EE800A9DED1C0AB0EE001A20EE011A2B
:100C60009DED0B0A3EEE800A41EE000ACDED160A1C
:100C70009DED1B0AF0EE000A60EE200A9DED0B0AC6
:100C800030EE6E0A60EE800A9DED1C0AB0EE001A8E
:100C900020EE011AB6EE000A70EE4F1A9DED0C0A16
:100CA00031EEC00A41EE000ACDED150A9DED180A9D
:100CB0006BEE800A9DED190A4CEE400A9DED150A77
:100CC00028EE801A9DED160A09EE401A30EE810AD0
:100CD0008DED140A9DED1A0A2CEE000ADDED180ABE
:100CE0000FEEE00ADDED170A29EE201ADDED150AF8
:100CF00009EEE01A30EE010A8DED130A9DED190A96
:100D00006FEE800A9DED1A0A4BEEC00A9DED160AA1
:100D100029EE801A9DED170A08EEC01A30EE810AFE
:100D20008DED120A9FED1F0A1F4880ED000A9DED10
:100D3000140AB5EEC00AF1EE10FA7CD09DED130A4C
:100D4000B5EEC00AF1EE10FA7FD09DED120AB5EEB5
:100D5000C00AF1EE10FA78D09DED140A1348D0EDD8
:100D6000000A60EE200A104890ED001A104890ED3D
:100D7000000A00EE810A80ED000A9DED130A0B487F
:100D8000D0ED000A60EE200A074890ED001A0948ED
:100D900012E00000100000201400002018000020C5
:100DA0001C0000206F12033A0800002004000020FD
:100DB000200000202400002090ED000A00EE810AAF
:100DC00080ED000A9DED120ADD48D0ED000A60EECC
:100DD000200ADC4890ED001ADB4890ED000A00EE96
:100DE000810A80ED000AD94890ED001A9DED140AA1
:100DF000F0EE4A0A41EE000AD54890ED000A30EEC6
:100E0000800AB0EE40AAD14890ED001A9DED130A79
:100E1000F0EE6A0A41EE000ACE4890ED000A30EE8C
:100E2000800AF0EE40AAC94890ED001A9DED120A22
:100E3000F0EE4B0A00E008E041EE000AC24890EDF7
:100E4000000A30EE800AB0EE40BAC348D0ED00CAC6
:100E5000C24890ED00DAC248D0ED00DAC14890ED0A
:100E600000EAB1EE4D0A20EE0A0A0DEEEA0A0EEE95
:100E70004B0AB44890ED001AF0EE6C0A40EE010AFD
:100E8000B548C0ED000A2CEE8A0A0DEE8B0A0EEE74
:100E90006A0AAC4890ED001AF0EE4D0A40EE010AE5
:100EA000AE48C0ED000A2CEEAA0A0DEE4B0A0EEE7B
:100EB0000A0AA44890ED001AF0EE6D0A40EE010A0D
:100EC000A748C0ED000A2CEE8B0A0DEE2A0A0DEEA3
:100ED000CA0A9C4890ED001AF0EE4E0A40EE010A54
:100EE000A048C0ED000A9C48D0ED000A60EEA00AC0
:100EF0009A4890ED001AD0ED001A41EE210A984868
:100F000090ED001AD0ED001A41EE210A954890EDBF
:100F1000001AD0ED001A41EE210AB0EE600A05F089
:100F200067FEB0EE408A8C4890ED000A20EE080A79
:100F300080ED000A894890ED000A20EE080A80ED55
:100F4000000A874890ED000A20EE080A80ED000AAA
:100F5000844890ED000A20EE080A80ED000A7E48E1
:100F600090ED000A7E48D0ED000A20EE200A7B4872
:100F7000D0ED000A7B4890ED001A00EEC10AF0EEB9
:100F8000000A20EE200A10EE101A0846FFF7E5FAD4
:100F9000CDE904019DED040B04F02EFC8DED060B54
:100FA0009FED710B53EC102B9DED060B51EC100BCC
:100FB000FFF750FACDE908019DED080B51EC100B3D
:100FC000FFF7DEFA6A494860634890ED000A20EEB8
:100FD000000A6248D0ED000A90ED001A00EEC10A46
:100FE0005F48D0ED000A90ED001A00EEC10A5D489E
:100FF000D0ED000A90ED001A00EE810A10EE101AF2
:101000000846FFF7AAFACDE90201534890ED000A1D
:101010005248D0ED000A20EE200A5148D0ED000AD7
:10102000504890ED001A00EE810AF0EE000A20EE22
:10103000200A10EE101A0846FFF78FFACDE90001DA
:101040009DED021B9DED000B04F0F2FE8DED040BF7
:101050009DED040B51EC100B81F000419FED420B14
:1010600053EC102BCDE906019DED060B51EC100B56
:10107000FFF7F0F9CDE908019DED080B51EC100BDD
:10108000FFF77EFA3A498860334890ED000A20EE77
:10109000000A3248D0ED000A90ED001A00EE810AF5
:1010A0002F48D0ED000A90ED001A00EEC10A2D483D
:1010B000D0ED000A90ED001A00EEC10A10EE101AF1
:1010C0000846FFF74AFACDE90401234890ED000AEB
:1010D0002448D0ED000A20EE200A2048D0ED000A76
:1010E0001F4890ED001A00EE810AF0EE000A20EE93
:1010F000200A10EE101A0846FFF72FFACDE9020178
:101100009DED041B9DED020B04F092FE8DED060B90
:101110009FED150B53EC102B9DED060B51EC100BB6
:10112000FFF798F9CDE908019DED080B51EC100B84
:10113000FFF726FA0E49086021B0BDEC108B00BD08
:1011400004000020080000202800002000000020EB
:1011500020000020240000201000002014000020A7
:10116000180000201C00002000000020DCA54C40DE
:10117000E000002010B501F0E3FE01F0AFFE10B179
:1011800002A004F0F3FA01F0BDFB10BD4D50552054
:10119000496E697420535543434553532E0A00004A
:1011A00000BFFEE70248007802490978084370470B
:1011B0005100002050000020704770471FB568465E
:1011C00001F078FE002876D002A801F07DFE00280C
:1011D00071D09DF801009DF8001040EA01205849A7
:1011E0000988401A00B2574908809DF803009DF80D
:1011F000021040EA012052494988401A00B2514980
:1012000048809DF805009DF8041040EA01204C49F3
:101210008988401A00B24B4988809DF809009DF8E2
:10122000081040EA012048490988401A00B247499D
:1012300008809DF80B009DF80A1040EA0120424901
:101240004988401A00B2414948809DF80D009DF838
:101250000C1040EA01203C498988401A00B23B4901
:1012600088800846B0F9000000EE100AB8EEC00A07
:10127000DFED370A20EE200A364880ED000A0846E6
:10128000B0F9020000EE100AB8EEC00ADFED300A35
:1012900020EE200A2F4880ED010A0846B0F904002C
:1012A00000EE100AB8EEC00ADFED290A20EE200A8F
:1012B000284880ED020A684601F046FBE8B39DF835
:1012C00001009DF8001040EA012000B22249088088
:1012D0009DF805009DF8041040EA012000B21E4967
:1012E00048809DF803009DF8021040EA012000B2FA
:1012F000194988800846B0F90000B0F5004F04DBBA
:1013000008460088401C00B208801348B0F902006B
:10131000B0F5004F05DB10484088401C00B20E4974
:1013200048800D48B0F90400B0F5004F05DB0A48CD
:101330008088401C00B20849888001F03BFE1FBD38
:101340005800002052000020640000205E000020B1
:1013500089A18B3AD40000206A000020F8B502462B
:101360000B460025002400200021DCE0012606FABF
:1013700001F51E6806EA0504AC4273D15E68012ED1
:1013800008D05E68022E05D05E68112E02D05E681D
:10139000122E13D190684F000326BE40B0434F0079
:1013A000DE68BE4030439060506801268E40B043F6
:1013B0001E79C6F300168E4030435060D0684F004F
:1013C0000326BE40B0434F009E68BE403043D0600D
:1013D0005E68022E02D05E68122E13D1CF0802F191
:1013E000200656F827004E07F70E0F26BE40B043E2
:1013F0004F07FF0E1E69BE403043CF0802F12006A2
:1014000046F8270010684F000326BE40B0431E79FF
:1014100006F003064F00BE40304310605E6806F0E1
:101420008056B6F1805F7DD100BF00260096404E09
:10143000366846F480463E4F3E603E46366806F4C7
:101440008046009600BF00BF3A4E8F0856F827002E
:101450008E07370F0F26BE40B043374EB24202D13F
:10146000002624E05EE0354EB24201D101261EE0A6
:10147000334EB24201D1022619E0324EB24201D1BE
:10148000032614E0304EB24201D104260FE02F4E65
:10149000B24201D105260AE02D4EB24201D1062604
:1014A00005E02C4EB24201D1072600E008268F0746
:1014B0003F0FBE4030431F4E8F0846F82700264E90
:1014C0003068A0435E6806F48036B6F5803F00D1F0
:1014D0002043214E3060361D3068A0435E6806F41C
:1014E0000036B6F5003F00D120431B4E361D30605C
:1014F000361D3068A0435E6806F48016B6F5801F7E
:1015000000D12043144E08363060361D3068A043A9
:101510005E6806F40016B6F5001F00D120430E4E9B
:101520000C363060491C1029FFF420AFF8BD0000D4
:1015300044380240083801400000024000040240E4
:1015400000080240000C024000100240001402405B
:1015500000180240001C0240003C014001480068A5
:10156000704700007000002070B504460CB90120DF
:1015700070BD94F83D0028B9002084F83C00204656
:1015800000F006FB242084F83D002068006820F06D
:101590000100216808602068006840F4004021686C
:1015A00008602068006820F400402168086000F0AE
:1015B000D9FC05465C496068884206D85B4885428C
:1015C00001D2012007E0002005E05948854201D200
:1015D000012000E00020012800D1C9E75548B5FBF3
:1015E000F0F62068406820F03F00304321684860F2
:1015F0004D496068884201D8701C07E04FF496702E
:1016000070434FF47A71B0FBF1F0401C2168096A15
:1016100021F03F010843216808624349606888421D
:1016200014D8681E61684900B0FBF1F0401CC0F39B
:101630000B00042801D204203DE0681E61684900C7
:10164000B0FBF1F0401CC0F30B0034E0A06838B9E7
:10165000681E616801EB4101B0FBF1F0401C0AE03B
:10166000681E616801EBC10202EB0111B0FBF1F0F1
:10167000401C40F48040C0F30B0008B901201AE080
:10168000A06848B9681E616801EB4101B0FBF1F048
:10169000401CC0F30B000CE0681E616801EBC10246
:1016A00002EB0111B0FBF1F0401CC0F30B0040F461
:1016B000804040F400402168C9694CF6FF729143B4
:1016C00008432168C861D4E9070108432168096813
:1016D00021F0C001084321680860D4E903100843E1
:1016E0002168896848F2FF32914308432168886085
:1016F000D4E9050108432168C96821F0FF010843C6
:101700002168C8602068006840F001002168086016
:1017100000202064202084F83D000020206384F80D
:101720003E0000BF24E70000A086010080841E0068
:1017300000093D0040420F002DE9FC5F04460F46C2
:1017400090469946DDE90CAB0E9EFFF707FF054674
:1017500094F83D00202870D119230122B049204679
:10176000009501F06BFA10B10220BDE8FC9F00BFAC
:1017700094F83C00012801D10220F6E7012084F80A
:101780003C0000BF2068006800F0010028B9206814
:10179000006840F00100216808602068006820F4BB
:1017A000006021680860222084F83D00402084F811
:1017B0003E0000202064C4F824A0A4F82AB0608D64
:1017C00020859848E0624B46424639462046CDE99E
:1017D000006501F0E5F808B10120C6E7208D88B961
:1017E00000BF002001902068406901902068806956
:1017F000019000BF00BF2068006840F400702168BD
:10180000086040E0208D012818D12068006820F48D
:1018100080602168086000BF002001902068406956
:10182000019020688069019000BF00BF20680068B7
:1018300040F400702168086025E0EFE0208D022868
:1018400016D12068006820F4806021680860206854
:10185000006840F400602168086000BF002001902B
:1018600020684069019020688069019000BF0AE00B
:1018700000BF0020019020684069019020688069C5
:10188000019000BF00BFBAE0208D03287ED8208DD4
:10189000012815D12A463146204601F074FA08B1D4
:1018A000012062E720680069616A0870606A401C74
:1018B0006062208D401E2085608D401E60859EE008
:1018C000208D02282AD13346002257492046009510
:1018D00001F0B4F908B1012047E72068006840F43E
:1018E00000702168086020680069616A0870606A99
:1018F000401C6062208D401E2085608D401E6085EA
:1019000020680069616A0870606A401C6062208D0E
:10191000401E2085608D401E608570E033460022A9
:1019200041492046009501F089F908B101201CE7E2
:101930002068006820F480602168086020680069E1
:10194000616A0870606A401C6062208D401E2085BC
:10195000608D401E60853346002233492046009545
:1019600001F06CF908B10120FFE62068006840F43E
:1019700000702168086020680069616A0870606A08
:10198000401C6062208D401E208500E010E0608DCC
:10199000401E608520680069616A0870606A401CAA
:1019A0006062208D401E2085608D401E608526E08F
:1019B0002A463146204601F0E6F908B10120D4E676
:1019C00020680069616A0870606A401C6062208D4E
:1019D000401E2085608D401E608520684069C0F3F0
:1019E000800060B120680069616A0870606A401C0C
:1019F0006062208D401E2085608D401E6085208D98
:101A000000287FF441AF202084F83D00002084F8B6
:101A10003E0000BF84F83C0000BFA6E60220A4E61A
:101A2000020010000000FFFF040001002DE9FC5F30
:101A300004460F4690469946DDE90CAB0E9EFFF733
:101A40008DFD054694F83D0020287DD11923012203
:101A50004D492046009501F0F1F810B10220BDE893
:101A6000FC9F00BF94F83C00012801D10220F6E75A
:101A7000012084F83C0000BF2068006800F00100ED
:101A800028B92068006840F00100216808602068DB
:101A9000006820F4006021680860212084F83D007F
:101AA000402084F83E0000202064C4F824A0A4F85C
:101AB0002AB0608D20853548E0624B464246394663
:101AC0002046CDE9006501F01BF808B10120C6E70A
:101AD00031E02A463146204601F095F950B1206C9C
:101AE000042805D12068006840F40070216808606F
:101AF0000120B4E7606A007821680861606A401CD0
:101B00006062208D401E2085608D401E60852068AB
:101B10004069C0F3800070B1208D60B1606A0078C8
:101B200021680861606A401C6062208D401E20852B
:101B3000608D401E6085208D0028CAD12A4631461E
:101B4000204601F04DF800E01CE050B1206C042864
:101B500005D12068006840F4007021680860012009
:101B60007DE72068006840F400702168086020204C
:101B700084F83D00002084F83E0000BF84F83C005B
:101B800000BF6CE702206AE7020010000000FFFFC0
:101B900010B586B00446142101A8FEF7A9FB1B4925
:101BA000206888422FD100BF0020009018480068AC
:101BB00040F00200164908600846006800F0020084
:101BC000009000BF00BFC0200190122002900120B1
:101BD0000390032004900420059001A90D48FFF70D
:101BE000BDFB00BF0020009009481030006840F4A1
:101BF00000100749103108600846006800F4001022
:101C0000009000BF00BF06B010BD000000540040AF
:101C10003038024000040240034800680349097854
:101C200008440149086070477000002078000020D7
:101C300010B50D48006840F400700B490860084674
:101C4000006840F4806008600846006840F48070D6
:101C50000860032000F0AAF8002000F007F800F068
:101C60002BF8002010BD0000003C024070B5044677
:101C70000E4800784FF47A71B1FBF0F00C49096816
:101C8000B1FBF0F5284600F029FC08B1012070BD39
:101C9000102C07D200222146501E00F049F80548BA
:101CA000046001E00120F2E70020F0E77800002066
:101CB0007C0000207400002008B500BF00200090C8
:101CC0001248006840F480401049086008460068E7
:101CD00000F48040009000BF00BF00BF00200090D3
:101CE000081F006840F08050091F0860084600681F
:101CF00000F08050009000BF00BF00221146052078
:101D000000F016F8052000F003F808BD4438024042
:101D100001460846002809DB00F01F0301229A4013
:101D200043099B0003F1E023C3F8002100BF704783
:101D30002DE9F05F80460D461646002703F03EFD74
:101D4000074639462A46334601F00700C0F1070A24
:101D5000BAF1040F02D94FF0040A01E0C0F1070AFA
:101D6000D14600F1040ABAF1070F02D24FF0000A7F
:101D700001E0A0F1030AD4464FF0010A0AFA09FA79
:101D8000AAF1010A0AEA020A0AFA0CFA4FF0010B58
:101D90000BFA0CFBABF1010B0BEA030B4AEA0B0449
:101DA0002146404603F012FDBDE8F09F00BF00F061
:101DB0000702064B19684FF6FF031940044B0B430B
:101DC00043EA0221014B196000BF70470CED00E0AF
:101DD0000000FA0570B504460D460CB9012070BD2F
:101DE0005848006800F00F00A84209D255490D700C
:101DF0000846006800F00F00A84201D00120EEE77D
:101E0000207800F0020002281DD1207800F00400A4
:101E1000042805D14C48006840F4E0504A49086065
:101E2000207800F00800082805D14748006840F4F1
:101E30006040454908604448006820F0F000A1680F
:101E4000084341490860207800F00100A8B36068A9
:101E5000012807D13C4808380068C0F34040B8B9B1
:101E60000120BCE76068022802D06068032807D11F
:101E7000354808380068C0F3406048B90120AEE733
:101E8000314808380068C0F3400008B90120A6E7CF
:101E90002D48006820F00300616808432A49086063
:101EA000FFF75CFB064609E0FFF758FB801B41F299
:101EB0008831884202D9032091E707E02248006870
:101EC00000F00C006168B0EB810FEDD11D48006897
:101ED00000F00F00A84209D91A490D7008460068A1
:101EE00000F00F00A84201D0012078E7207800F030
:101EF0000400042807D11448006820F4E050E16889
:101F0000084311490860207800F00800082808D12B
:101F10000D48006820F46040216940EAC1000A4988
:101F2000086000F03FF808490968C1F30311074A47
:101F3000515CC8400649086006480068FFF796FEF5
:101F400000204CE7003C024008380240F26C0008D8
:101F50007C000020740000200148006870470000E9
:101F60007C00002000B5FFF7F7FF04490968C1F3C2
:101F70008221034A515CC84000BD0000083802407D
:101F8000026D000800B5FFF7E7FF04490968C1F3D7
:101F90004231034A515CC84000BD0000083802408D
:101FA000026D00082DE9F047002400250026A14617
:101FB0002548006800F00C0020B1042805D008284E
:101FC0003AD105E0DFF8849039E0DFF8849036E01C
:101FD0001D48001F006800F03F041B48001F0068F8
:101FE00000F4800078B11A481749091F0968C1F345
:101FF0008811A0FB01700146224600233846FEF7F7
:102000003FF905460EE011480F49091F0968C1F361
:102010008811A0FB01700146224600233846FEF7D6
:102020002FF905460848001F0068C0F30140401C16
:102030004600B5FBF6F902E0DFF8109000BF00BFE4
:102040004846BDE8F0870000083802400024F4004C
:1020500000127A00F8B504460CB90120F8BD2078CA
:1020600000F00100002874D0F948006800F00C006E
:1020700004280DD0F648006800F00C00082813D1A1
:10208000F348001F006800F48000B0F5800F0BD10A
:10209000EF4808380068C0F34040002859D0606815
:1020A000002856D10120D9E700BF6068B0F5803F15
:1020B00008D1E7480838006840F48030E44908391E
:1020C00008601EE06068B0F5A02F0DD1E048083828
:1020D000006840F48020DE4908390860084600683E
:1020E00040F4803008600CE0D9480838006820F4DB
:1020F0008030D749083908600846006820F48020FD
:10210000086000BF606890B1FFF728FA054606E056
:10211000FFF724FA401B642801D903209EE7CC482E
:1021200008380068C0F340400028F1D011E0FFF704
:1021300015FA054606E0FFF711FA401B642801D99D
:1021400003208BE7C24808380068C0F340400028ED
:10215000F1D1207800F0020002285FD1BC4800686D
:1021600000F00C0058B1BA48006800F00C000828D4
:102170001CD1B748001F006800F48000B0B9B44813
:1021800008380068C0F3400020B1E068012801D0A1
:10219000012063E7AE480838006820F0F8002169A4
:1021A00040EAC100AA490839086037E0E06800B396
:1021B0000120A8490860FFF7D1F9054606E0FFF7BE
:1021C000CDF9401B022801D9032047E7A048083871
:1021D0000068C0F340000028F1D09D48083800682E
:1021E00020F0F800216940EAC100994908390860E7
:1021F00014E0002097490860FFF7B0F9054606E0B3
:10220000FFF7ACF9401B022801D9032026E79048CC
:1022100008380068C0F340000028F1D1207800F0B1
:10222000080008282CD16069A8B101208A490860FB
:10223000FFF794F9054606E0FFF790F9401B0228E6
:1022400001D903200AE782486C300068C0F34000DF
:102250000028F1D014E000207F490860FFF77EF9E4
:10226000054606E0FFF77AF9401B022801D9032052
:10227000F4E677486C300068C0F340000028F1D1E4
:10228000207800F00400042870D10027704838300E
:10229000006800F0805090B900BF002000906C48AA
:1022A0003830006840F0805069493831086008468D
:1022B000006800F08050009000BF00BF0127674811
:1022C000006800F48070B0B96448006840F4807021
:1022D00062490860FFF742F9054606E0FFF73EF95C
:1022E000401B022801D90320B8E65C48006800F4CE
:1022F00080700028F2D000BFA068012808D154489F
:102300006830006840F001005149683108601DE004
:10231000A06805280DD14E486830006840F00400E0
:102320004B49683108600846006840F001000860C9
:102330000CE047486830006820F0010044496831EB
:1023400008600846006820F00400086000BFA0682C
:10235000A8B1FFF703F9054609E0FFF7FFF8401BB6
:1023600041F28831884202D9032077E626E03848D6
:1023700068300068C0F340000028EED013E0FFF79B
:10238000EDF8054608E0FFF7E9F8401B41F2883117
:10239000884201D9032061E62D4868300068C0F307
:1023A00040000028EFD1012F07D1294838300068BC
:1023B00020F0805026493831086000BFA06900280D
:1023C00045D02348006800F00C0008285DD0A069C3
:1023D000022845D100201F490866FFF7BFF80546CF
:1023E00006E0FFF7BBF8401B022801D9032035E6C1
:1023F000174808380068C0F340600028F1D1D4E9DC
:1024000007010843616A40EA81110122A06AC2EB18
:10241000500041EA00412C20005D41EA00600C4977
:10242000091F086001200B490866FFF797F8054669
:1024300006E0FFF793F8401B022801D903200DE6C0
:10244000034808380068C0F340600028F1D03FE03E
:102450000838024000004742800E474200700040AA
:1024600000201C490866FFF779F8054606E0FFF7EB
:1024700075F8401B022801D90320EFE516480068D3
:10248000C0F340600028F2D122E0A069012800D109
:10249000E4E51148001D066806F48001E069814208
:1024A00014D106F03F01206A81420FD147F6C07077
:1024B0003040616A884209D106F44031A06A814205
:1024C00004D106F07061E06A814201D00120C5E5C7
:1024D0000020C3E5000047420038024070B50446C2
:1024E0002546681EB0F1807F01D301200FE0681EF1
:1024F0004FF0E02148610F214FF0FF3003F066F903
:1025000000204FF0E021886107200861002070BDA5
:1025100030B502460B4600BF92F83C00012801D1BD
:10252000022030BD012082F83C0000BF022082F86A
:102530003D00106844681068816824F070041868D1
:10254000044310684460184D1068A8421BD01068FE
:10255000B0F1804F17D0154D1068A84213D0144D1C
:102560001068A8420FD0134D1068A8420BD0124D2E
:102570001068A84207D0114D1068A84203D0104D32
:102580001068A84205D121F0800158680143106805
:102590008160012082F83D0000BF002082F83C00ED
:1025A00000BF00BFBDE70000000001400004004084
:1025B00000080040000C00400004014000400140C1
:1025C0000018004010B504460CB9012010BD94F865
:1025D0003D0028B9002084F83C00204600F00CF8AB
:1025E000022084F83D00211D206802F019FD012021
:1025F00084F83D000020E9E708B50168B1F1804F9B
:102600000FD100BF002100910649096841F0010186
:10261000044A11601146096801F00101009100BFF0
:1026200000BF08BD403802402DE9F04104460D4688
:1026300000BF94F83C00012802D10220BDE8F081DF
:10264000012084F83C0000BF022084F83D0020688F
:10265000866826F0770626F47F462068866028681C
:10266000502833D00CDC202850D004DC00284BD07C
:10267000102851D149E0302849D040284CD139E0C8
:1026800060282DD0702807D0B0F5805F03D0B0F55A
:10269000005F41D10DE040E0D5E902136A6820688F
:1026A00002F02AFD2068866846F07706206886607A
:1026B00033E0D5E902136A68206802F01DFD206846
:1026C000806840F480402168886026E0EA68696894
:1026D000206802F025FD5021206802F018FD1CE062
:1026E000EA686968206802F02EFD6021206802F027
:1026F0000EFD12E0EA686968206802F011FD4021D1
:10270000206802F004FD08E000BF00BF00BF296898
:10271000206802F0FCFC00E000BF00BF012084F84C
:102720003D0000BF002084F83C0000BF00BF85E7EB
:1027300010B504460CB9012010BDA06900B100E03D
:1027400000BF94F8390028B9002084F838002046EA
:1027500000F028F8242084F839002068C06820F4AC
:1027600000502168C860204602F0C6FD206800695C
:1027700020F49040216808612068406920F02A0018
:10278000216848612068C06840F400502168C86032
:102790000020E063202084F8390084F83A0000200B
:1027A000CAE7000010B586B00446142101A8FDF761
:1027B0009FFD1B492068884230D100BF0020009057
:1027C0001848006840F480201649086008460068F0
:1027D00000F48020009000BF00BF00BF00200090E8
:1027E00010481038006840F008000E4910390860A1
:1027F0000846006800F00800009000BF00BF4FF4DA
:102800004070019002200290012003900320049068
:102810000720059001A90448FEF7A0FD06B010BDF1
:102820000048004040380240000C02402DE9F843C7
:1028300004460D4616461F464FF0000994F839002D
:1028400020285DD105B116B90120BDE8F88300BF8D
:1028500094F83800012801D10220F6E7012084F81D
:10286000380000BF0020E063212084F83900FEF723
:1028700075FE8146A684E68400BF002084F83800F7
:1028800000BF2BE0E08C401EE084A068B0F5805FC4
:1028900016D14B46002280212046009702F020FFEF
:1028A00008B10320D1E7A846B8F80000C0F308003B
:1028B00021684860206908B9AD1C0FE06D1C0DE06F
:1028C0004B46002280212046009702F009FF08B104
:1028D0000320BAE715F8010B21684860E08C002856
:1028E000D0D14B46002240212046009702F0F8FE4E
:1028F00008B10320A9E7202084F839000020A4E7CC
:102900000220A2E708B500200090702000906B46DE
:10291000012200213C2002F0ECFAE02000906B46FE
:10292000012211463C2002F0E4FA064802F0F4FAD3
:10293000002000906B46012202213C2002F0D9FACF
:1029400008BD0000FFFF0F0010B504462346062215
:1029500003213C2002F0BAFA012010BD00BFFEE7BF
:10296000014608684069C0F38020B0B16FF4806010
:102970000A68506100200863202081F83D00002093
:1029800081F83E00086C40F00400086400BF00209D
:1029900081F83C0000BF012070470020FCE70000E8
:1029A0002DE9F84304460F4615469946DDE90886A9
:1029B0002068006840F48060216808602068006832
:1029C00040F4807021680860434600224FF00111F6
:1029D0002046009600F032F960B12068006800F4EB
:1029E0008070B0F5807F02D14FF400702064032026
:1029F000BDE8F88307F0FE002168086133464246CF
:102A00003E49204600F05DF908B10120F0E700BF23
:102A10000020009020684069009020688069009044
:102A200000BF00BF32464146204600F0ECF950B1ED
:102A3000206C042805D12068006840F400702168EB
:102A400008600120D4E7B9F1010F03D1E8B2216891
:102A5000086117E0C5F30720216808613246414646
:102A6000204600F0D0F950B1206C042805D1206830
:102A7000006840F40070216808600120B8E7E8B2FF
:102A80002168086132464146204600F0BCF950B149
:102A9000206C042805D12068006840F4007021688B
:102AA00008600120A4E72068006840F48070216875
:102AB0000860434600224FF001112046009600F0C6
:102AC000BDF858B12068006800F48070B0F5807FD0
:102AD00002D14FF400702064032089E7F8B240F07F
:102AE000010021680861334642460449204600F04F
:102AF000E8F808B101207BE7002079E70200010037
:102B00002DE9F8430446884615469946DDE90867ED
:102B10002068006840F48070216808603346002215
:102B20004FF001112046009700F088F860B120684E
:102B3000006800F48070B0F5807F02D14FF400701F
:102B400020640320BDE8F88308F0FE0021680861D6
:102B50003B4632462149204600F0B3F808B1012037
:102B6000F0E700BF002000902068406900902068D6
:102B70008069009000BF00BF3A463146204600F011
:102B800042F950B1206C042805D12068006840F457
:102B90000070216808600120D4E7B9F1010F03D16A
:102BA000E8B22168086117E0C5F3072021680861D1
:102BB0003A463146204600F026F950B1206C0428F0
:102BC00005D12068006840F4007021680860012089
:102BD000B8E7E8B2216808610020B3E7020001000D
:102BE00070B504460D46164620E02046FFF7B8FEB5
:102BF00008B1012070BD681CC0B1FEF7AFFC801B9E
:102C0000A84200D895B900202063202084F83D0018
:102C1000002084F83E00206C40F02000206400BFBB
:102C2000002084F83C0000BF0120E3E720684069F1
:102C3000C0F380000028D8D00020DBE72DE9F04168
:102C400004460D4617461E46DDF818801CE0701C31
:102C5000D0B1FEF783FCA0EB0800B04200D89EB9CB
:102C600000202063202084F83D00002084F83E00EE
:102C7000206C40F02000206400BF002084F83C005D
:102C800000BF0120BDE8F081C5F3074001280AD14B
:102C900020684069A9B20840A9B2884201D1012048
:102CA0000BE0002009E020688069A9B20840A9B2C1
:102CB000884201D1012000E00020B842C7D00020A6
:102CC000E0E72DE9F04104460D4616461F463DE07B
:102CD00020684069C0F38020E8B12068006840F4B3
:102CE0000070216808606FF48060216848610020EE
:102CF0002063202084F83D00002084F83E00206CF2
:102D000040F00400206400BF002084F83C0000BFB5
:102D10000120BDE8F081701CC0B1FEF71FFCC01B94
:102D2000B04200D896B900202063202084F83D00EE
:102D3000002084F83E00206C40F02000206400BF9A
:102D4000002084F83C0000BF0120E2E7C5F3074003
:102D500001280AD120684069A9B20840A9B2884276
:102D600001D101200BE0002009E020688069A9B2B0
:102D70000840A9B2884201D1012000E000200028CB
:102D8000A6D00020C5E770B504460D46164632E0D1
:102D900020684069C0F30010A0B16FF010002168F6
:102DA000486100202063202084F83D00002084F842
:102DB0003E00206C206400BF002084F83C0000BF6F
:102DC000012070BDFEF7CAFB801BA84200D895B950
:102DD00000202063202084F83D00002084F83E007D
:102DE000206C40F02000206400BF002084F83C00EC
:102DF00000BF0120E5E720684069C0F3801000288B
:102E0000C6D00020DDE770B504460D46164620E02A
:102E10002046FFF7A5FD08B1012070BD681CC0B1B8
:102E2000FEF79CFB801BA84200D895B900202063C8
:102E3000202084F83D00002084F83E00206C40F003
:102E40002000206400BF002084F83C0000BF012067
:102E5000E3E720684069C0F3C0100028D8D0002004
:102E6000DBE70000FEB504460D4617461E4664200B
:102E700001232A462146CDE9006702900248FEF769
:102E80005BFC0020FEBD000020110020FEB50446C2
:102E90000D4617461E46642001232A462146CDE9E9
:102EA000006702900248FEF7C1FD0020FEBD000051
:102EB0002011002010B50446234606223B21D020D5
:102EC00002F004F8012010BD10B504462346062286
:102ED0004321D02001F0FAFF012010BD08B50020E9
:102EE00000906B4601227521D02001F0EFFF9DF884
:102EF0000000682804D006A002F038FC002008BDBD
:102F00009DF8001009A002F031FC0120F7E7000055
:102F10004D50553630353020646563746563746593
:102F200064206572726F72210D0A00004D50553693
:102F3000303530204944203D2025640D0A00000032
:102F400008B5002000906B4601226B21D02001F0D3
:102F5000D0FF002000906B4601221A21D02001F002
:102F6000C8FF072000906B4601221921D02001F0F4
:102F7000C0FF082000906B4601221C21D02001F0E8
:102F8000B8FF182000906B4601221B21D02001F0D1
:102F9000B0FFC02000906B4601226A21D02001F0D2
:102FA000A8FF822000906B4601223721D02001F03B
:102FB000A0FF08BD5C480078002858D05B48007826
:102FC00070B900205A4908804880888059490860B3
:102FD00059490860594908600120544908707047F0
:102FE00052480078401C514908705548B0F900001B
:102FF0005049096808444F4908605148B0F9020037
:103000004D49096808444C4908604D48B0F904002E
:103010004A490968084449490860444800786528D5
:1030200025D142480078401E404908704148006858
:10303000097890FBF1F000B23D4908803E480068F5
:103040003A49097890FBF1F000B2394948803B4891
:1030500000683649097890FBF1F0A0F5005000B205
:10306000334988800020314908702F49087035485D
:103070000078002856D03448007870B900203349D1
:1030800008804880888032490860324908603249A7
:10309000086001202C490870A1E72B480078401CEB
:1030A000294908702D48B0F90000294909680844E9
:1030B000274908602948B0F90200264909680844F0
:1030C000244908602548B0F90400234909680844E8
:1030D000214908601C480078652823D11A480078E7
:1030E000401E194908701A480068097890FBF1F0F1
:1030F00000B216490880174800681349097890FB08
:10310000F1F000B211494880134800680E4909786F
:1031100090FBF1F000B20D49888000200A49087048
:103120000849087000BF5AE751000020380000200D
:10313000580000202C000020300000203400002027
:1031400052000020500000204800002064000020B1
:103150003C00002040000020440000205E000020D1
:1031600008B500BF002000901D48006840F08000B6
:103170001B4908600846006800F08000009000BF0E
:1031800000BF00BF002000900846006840F0080023
:1031900008600846006800F00800009000BF00BF0B
:1031A00000BF002000900846006840F00100086061
:1031B0000846006800F00100009000BF00BF00BF9B
:1031C000002000900846006840F0020008600846B1
:1031D000006800F00200009000BF00BF08BD0000C2
:1031E0003038024010B50B480B4908600B48486066
:1031F000002109488160C1604FF4804101610021D4
:1032000041618161C1610162FEF7AEF908B1FDF76C
:10321000D4FF10BD0054004020110020801A060089
:1032200000B587B0002003900490059006900190AF
:1032300002904FF0804014490860532048600021FC
:10324000114881604FF6FF71C16000210161816109
:10325000FFF7B8F908B1FDF7B0FF4FF480500390C5
:1032600003A90948FFF7E0F908B1FDF7A6FF002020
:103270000190029001A90448FFF74AF908B1FDF74F
:103280009CFF07B000BD00007411002010B50B4872
:103290000B4908604FF416504860002108488160CF
:1032A000C16001610C21416100218161C161FFF7B1
:1032B0003FFA08B1FDF781FF10BD00000048004053
:1032C000B411002000BFFEE77047000017481848FF
:1032D0001848194819481A481A481B481B481C48DE
:1032E0001C481D481D481E481E481F481F482048AE
:1032F000204821482148224822482348234824487E
:10330000244825482548264826482748274828484D
:103310002848294829482A482A482B482B482C481D
:103320002C482D482D482E4800BF70470C6D0008D2
:10333000106D0008166D0008186D0008146D000867
:103340001A6D00081C6D00081E6D0008206D000835
:10335000226D0008246D0008266D0008286D000805
:103360002A6D00082C6D00082E6D0008306D0008D5
:10337000326D0008346D0008366D0008386D0008A5
:103380003A6D00083C6D00083E6D0008406D000875
:10339000426D0008446D0008466D0008486D000845
:1033A0004A6D00084C6D00084E6D0008506D000815
:1033B000526D0008546D0008566D0008586D0008E5
:1033C0005A6D00085C6D00085E6D0008626D0008B3
:1033D000646D0008666D0008686D00086A6D00087D
:1033E0007E6D000810B500F017F800F043FD00F006
:1033F0006BFD00F08BFD00F00DFD00F0CDFC00F04A
:103400001FFE00F049FE00F0C1FD00F0E7FD00F0F6
:1034100004F8FFF75BFF10BD7047704710B500243C
:103420001A480078012830D1FCF7CAFE0446184833
:10343000007820B116480078401E154908701448DD
:103440000078F8B913480078E0B900F087FE124818
:103450001249097850F82100114908600F48007896
:103460001049097888420DD00D480068C06B401C97
:103470000B490968C8630C480068401C0A49086089
:10348000FCF7BAFE2046FCF79FFE10BDA600002008
:10349000990000209A000020341700209C00002092
:1034A000B40000209B0000208000002010B50B48D5
:1034B000007890B900F052FE094800780949087078
:1034C00009480749097850F821000849086008466A
:1034D000006807490860FCF77AFE10BDA6000020CE
:1034E0009C0000209B00002034170020B400002026
:1034F000AC000020704700002DE9FE4F06460F4645
:1035000090461C464FF000093F2C02D92A20BDE806
:10351000FE8FFCF755FE81461E48007820B14846D4
:10352000FCF752FE3C20F2E71B4850F8240060BB39
:103530000120194941F824004846FCF745FE0023C4
:1035400042463946304600F0D9F9824600200090C4
:1035500001900346024651460290204600F014FEB8
:10356000054635B90D48007801280CD100F0BCFDA6
:1035700009E0FCF725FE81460020074941F82400B8
:103580004846FCF721FE2846C1E74846FCF71CFEEA
:103590002820BCE79900002034170020A600002056
:1035A0002DE9F04F85B081468A4693461C46DDE9F9
:1035B0000F78129D002003903F2C03D92A2005B0DC
:1035C000BDE8F08FFCF7FCFD03902248007820B1A5
:1035D0000398FCF7F9FD3C20F1E71F4850F8240060
:1035E00088BB01201C4941F824000398FCF7ECFD3E
:1035F0002A464146384600F0E3FE2B465A465146DD
:10360000484600F07BF904901198CDE900800295BE
:103610003A4620460E9B049900F0B6FD064636B9A0
:103620000E48007801280CD100F05EFD09E0FCF79F
:10363000C7FD03900020084941F824000398FCF7D7
:10364000C3FD3046BBE7FFE70398FCF7BDFD28202C
:10365000B5E700009900002034170020A6000020E4
:10366000704700002DE9F041054600274D480078DD
:1036700010B14020BDE8F0813F2D01D13E20F9E797
:103680003F2D03D3FF2D01D02A20F3E7FCF798FD4F
:103690000746FF2D03D14448006890F83650434850
:1036A00050F8254024B93846FCF78EFD4320E1E769
:1036B000012C04D13846FCF787FD3D20DAE714F8E9
:1036C000380F3B49085C617888432178384A505468
:1036D00014F838091146085C30B994F83A103548A6
:1036E0000078884333490870E06918B12046E169E1
:1036F00000F01FFB206A18B12046216A00F02EFB63
:10370000A66A16B1304600F073FB0020206384F8EF
:10371000340084F8350028480078FF2804D2264871
:103720000078401C244908703846FCF74DFD00F035
:10373000FFFAFCF745FD07461F48007820B11E48F8
:103740000078401E1C490870204600F041F81B48D4
:103750000078401E194908700020144941F82500DE
:10376000A06930B900206169886115496069086005
:1037700005E0D4E905014861D4E9051088611148E4
:10378000006860610F4804600FA020653846FCF7B0
:103790001BFD0E480078012801D100F0A5FC002097
:1037A00068E7000099000020AC00002034170020DA
:1037B0009E0000209D0000209A000020A70000200D
:1037C000B8000020B00000203F000000A60000204C
:1037D000704770472DE9F04105460F4614464FF0FB
:1037E00000083F2D05D9FF2D03D02A202070BDE809
:1037F000F08117B90C202070F9E71448007810B157
:1038000012202070F3E7FCF7DBFC8046FF2D03D18C
:103810000F48006890F836500E4850F825602EB9D1
:103820004046FCF7D1FC43202070E0E7012E05D193
:103830004046FCF7C9FC43202070D8E73765404676
:10384000FCF7C2FC0020207000BFD0E799000020E8
:10385000AC00002034170020704770472DE9F04776
:1038600006460C464FF0000A3F2E04D9FF2E02D028
:103870002A20BDE8F0870CB90920FAE70020206073
:103880006060FCF79DFC8246FF2E03D1194800685A
:1038900090F83660184850F8265025B95046FCF785
:1038A00093FC4320E5E7012D04D15046FCF78CFC46
:1038B0004320DEE7287C00F0010020B95046FCF7E9
:1038C00083FC4520D5E70027D5F80C90D5F8088073
:1038D0005046FCF779FC00E07F1C58F8041B0029D7
:1038E000FAD0B8002060A9EB0700800060600020DB
:1038F000BFE70000AC0000203417002070B504467C
:1039000010460026051F28462E604FF48056051FDE
:1039100028462E601526051F28462E601426051FF2
:1039200028462E601326051F28462E601226051FE6
:1039300028462E601126051F28462E601026051FDA
:1039400028462E600926051F28462E600826051FDA
:1039500028462E600726051F28462E600626051FCE
:1039600028462E600526051F28462E600426051FC2
:1039700028462E600326051F28462E600226051FB6
:1039800028462E600126051F28462E600026051FAA
:1039900028462E604FF080750560051F28462C6074
:1039A000414E051F28462E604FF01236051F28464F
:1039B0002E604FF00336051F28462E604FF002366A
:1039C000051F28462E607610051F28462E60051F0D
:1039D000284629603126051F28462E603026051FFF
:1039E00028462E602926051F28462E602826051FFA
:1039F00028462E602726051F28462E602626051FEE
:103A000028462E602526051F28462E602426051FE1
:103A100028462E602326051F28462E602226051FD5
:103A200028462E602126051F28462E602026051FC9
:103A300028462E601926051F28462E601826051FC9
:103A400028462E601726051F28462E601626051FBD
:103A500028462E604FF01136051F28462E604FF085
:103A60001036051F28462E604FF00936051F2846E0
:103A70002E604FF00836051F28462E604FF007369F
:103A8000051F28462E604FF00636051F28462E607B
:103A90004FF00536051F28462E604FF00436051FEF
:103AA00028462E6070BD0000E54200082DE9F04177
:103AB00005464FF000083F2D02D14720BDE8F081B8
:103AC0003F2D03D3FF2D01D02A20F7E7FCF778FB29
:103AD0008046FF2D05D12048006890F83650012619
:103AE00008E01D48006890F83600A84201D1012680
:103AF00000E00026194850F8254024B94046FCF75C
:103B000063FB4820DAE7012C04D14046FCF75CFB5C
:103B10004320D3E794F838701148C05D94F8391009
:103B200088430F49C8550846C05D30B994F83A102B
:103B30000C48007888430B49087094F8340040F032
:103B4000080084F834004046FCF73EFB012E01D10A
:103B500000F0CAFA0020B1E7AC00002034170020C2
:103B60009E0000209D0000207047000070B50546B3
:103B700000261748007800B170BD1648007800B1E3
:103B8000FAE71DB3FCF71CFB06461348006890F8E3
:103B900038401248005D1049096891F8391088438F
:103BA0000E4908550846005D40B90B48006890F87A
:103BB0003A100B48007888430949087006480068A5
:103BC00005633046FCF700FB00F08EFA00BFD3E738
:103BD000990000209A000020AC0000209E000020E8
:103BE0009D00002070B5002600F072F8FCF7E8FA9E
:103BF000064631480068401C2F4908603046FCF7F3
:103C0000E3FA2E480078012853D12D48007820B1DE
:103C1000012804D0022809D103E001250BE000258A
:103C200009E0012501202649087004E00125002053
:103C30002349087000BF00BF05B970BD2148046862
:103C400033E0FCF7BDFA0646206B50B3206B401EF4
:103C50002063206B28BB94F8340000F0370040B19B
:103C600014F8340F00F0C800207001206070343C5C
:103C700002E0002084F8350094F8340000F00800D9
:103C800078B93834A0781049097808430E4908708B
:103C900020780E49085C6178084314F838190B4AFB
:103CA000505464693046FCF78FFA94F836003F2888
:103CB000C7D100BFC1E70000C8000020A600002057
:103CC000BC000020B80000209D0000209E000020C5
:103CD0007047000070B5FEF73FF94FF47A71B0FB02
:103CE000F1F42146481EB0F1807F00D31BE0481E4E
:103CF0004FF0E022506150170F22002804DB130719
:103D00001D0E094B1D5406E013071E0E074B00F055
:103D10000F052D1F5E5500BF00204FF0E02290617F
:103D20000720106100BF70BD00E400E018ED00E066
:103D3000704710B590F8382001F10B039B5C90F8A8
:103D40003940A34301F10B04A35423469B5C23B9E0
:103D50008B7A90F83A40A3438B7210BDF0B50246BF
:103D600012F8384F95785678383A0B4618680FE0B5
:103D700000F10B073F5DB74300F10B0C0CF804702A
:103D800067463F5D17B9877AAF4387721B1D186876
:103D90000028EDD1F0BD00002DE9F041502111487F
:103DA00000F044F900250DE0681C86B20D4800EBD8
:103DB000051400EB06170020207067600AA0E06081
:103DC000681C85B2042DEFD3064800EB05140020D3
:103DD0002070606004A0E060024804490860BDE80B
:103DE000F0810000E41200203F0000008800002065
:103DF00030B501464A6808682AB9CC68606028B1C5
:103E00000025456002E0106000B142608B6800252B
:103E10009D6230BD70B5F021134800F007F9002411
:103E200011E0601C85B204EB44000F4901EBC003B4
:103E300005EB450001EBC006002018705E600BA08A
:103E40005861601C84B2092CEBD304EB4400064992
:103E500001EBC00300201870586004A058610846A8
:103E60000349086070BD0000F41100203F0000000D
:103E70008400002000200A4908600A4908700A49A5
:103E800008700A4908700A4908700A4908600A4916
:103E900008600A4908600A4908600A4908707047C2
:103EA000C8000020990000209A000020A7000020F0
:103EB000A600002080000020A80000209400002020
:103EC000900000209800002000210A4A1170002074
:103ED00004E00021084A1154411CC8B20828F8D354
:103EE0000021064A1170064A1170064A1160064AFE
:103EF000116070479D0000209E0000209B00002064
:103F00009C000020B4000020AC00002070B54FF4ED
:103F10008461194800F08AF84FF48071174800F066
:103F200085F8002413E0601CC5B204EB440000EBEC
:103F3000C400114901EBC00305EB450000EBC500CF
:103F400001EBC0065E610EA01865601CC4B20B2CAC
:103F5000E9D304EB440000EBC400074901EBC003C4
:103F60000020586106A01865002006490860024834
:103F70000549086070BD0000341800203417002087
:103F80003F000000B8000020B000002000B587B05E
:103F90000320002180220A4BCDE90132CDE9031034
:103FA0004FF6FF703F23074A00900748FFF7F8FAE3
:103FB00006AA06A13F20FFF70DFC07B000BD0000D8
:103FC0003415002030170020BD42000875432F4FE4
:103FD000532D49492049646C6500000000B587B045
:103FE0000320002180220A4BCDE90132CDE90310E4
:103FF0004FF6FE703E23074A00900748FFF7D0FABD
:1040000006AA06A13E20FFF7E5FB07B000BD0000B1
:104010003413002030150020FD42000875432F4F57
:10402000532D4949205374617400000004E00022BC
:1040300000F8012B4A1E91B20029F8D17047000008
:1040400070B578211148FFF7F1FF00240EE004EB72
:1040500044000E4901EBC005601C00EB400001EB81
:10406000C00068600AA06861601C84B2042CEED3B2
:1040700004EB4400054901EBC0050020686004A082
:10408000686108460349086070BD0000541C0020A8
:104090003F000000C00000202DE9F04160211048E1
:1040A000FFF7C4FF00240DE0601C86B204EB44005F
:1040B0000B4901EBC00506EB460001EBC0072F6082
:1040C000601C84B2032CEFD304EB4400044901EBE1
:1040D000C00500202860084602490860BDE8F0815C
:1040E000CC1C0020C400002010B50024FCF768F8A8
:1040F000044613480078F8B912480078E0B900F097
:104100002DF811481149097850F82100104908602C
:104110000E4800780F49097888420DD00C48006895
:10412000C06B401C0A490968C8630B480068401C02
:1041300009490860FCF75BF82046FCF745F810BD1C
:10414000990000209A000020341700209C000020D5
:10415000B40000209B000020800000200649074A90
:104160001278885C0649095C034A515C01EBC00186
:10417000044A117070470000806D00089D00002007
:104180009E0000209C0000202DE9F84F05460F46B8
:1041900090469946DDE90AAB00200090FCF710F844
:1041A00000903F480468002C75D01C3454F8080C6B
:1041B0003B4908600098FCF707F844F81C7CA5769A
:1041C000002020766076606144F818BC44F810AC9A
:1041D00044F8148C0C9824F80C0C24F80A9C002049
:1041E000E077E810207705F00700E076217F0120D6
:1041F0008840A077E17E0120884060770020206021
:104200006060E060A0602062A0626062E0622063A3
:1042100024A060631C3C002606E0002104F1540049
:1042200040F82610701CC6B2002EF6D02046FFF7CC
:1042300061F92046FFF714FAFBF7C2FF00901A4815
:1042400040F825401948006860610020A0611748C7
:10425000006810B11548006884611448046038345F
:10426000A07813490978084311490870207811494A
:10427000085C6178084314F838190E4A50540E4807
:104280000078401C0C4908700098FBF79DFF002047
:10429000BDE8F88FFFE70098FBF796FF4220F7E7AD
:1042A000B00000203F00000034170020B8000020BC
:1042B0009D0000209E000020A7000020002400BFD9
:1042C00000BFFBF77DFF044605480068401C044919
:1042D00008602046FBF778FFFFF77BFAF1E7000064
:1042E000A800002010B504480068FFF7B5FAFF20C9
:1042F000FFF7B8F910BD0000AC000020002400BF9B
:1043000002E0C820FFF732FC194800780028F8D0F6
:10431000184800686421B0FBF1F0164908600846AF
:10432000006828B9002014490870FF20FFF7BEFB81
:1043300000BFFBF745FF04461048006810490860BD
:1043400000200E4908602046FBF73EFF0C4800683D
:1043500008490968B0FBF1F0C0F164000649087033
:10436000FFF77BFA00F00EF86420FFF7FFFBE0E7B1
:1043700098000020900000208C000020A800002061
:10438000940000207CB5002514E069462846FFF71C
:1043900065FA064666B9094850F8254044B1012C33
:1043A00006D0D4E9020100EB8100A0640198E0642A
:1043B000681CC5B23F2DE8D97CBD00003417002031
:1043C00002F0010343B102F002032BB102E0491EE7
:1043D000002308C00029FAD17047000001200249DB
:1043E00008700249087070475100002050000020FA
:1043F00000B5A3B018A8FEF7A7FA78B39DF861003E
:104400009DF8601040EA012000B221909DF86500FF
:104410009DF8641040EA012000B220909DF86300EE
:104420009DF8621040EA012000B21F902198B0F57B
:10443000004F03DB2198401C00B221902098B0F57A
:10444000004F03DB2098401C00B220901F98B0F56D
:10445000004F03DB1F98401C00B21F909FEDFE0A27
:104460008DED1C0A9FEDFC0A8DED1D0A1D98FCF7D1
:1044700074F8CDE908019DED080B01F035FE8DEDD6
:104480000C0B1F98FCF758F8CDE90A019DED0C0BB9
:1044900053EC102B9DED0A0B51EC100BFBF7DAFFE0
:1044A000CDE910011D98FCF758F8CDE908019DED04
:1044B000080B01F0B5FD8DED0C0B2098FCF73CF8D6
:1044C000CDE90A019DED0C0B53EC102B9DED0A0B71
:1044D00051EC100BFBF7BEFFCDE90E019DED100B6B
:1044E00053EC102B9DED0E0B51EC100BFBF7ACFFBA
:1044F000CDE914011D98FCF730F8CDE908019DEDD8
:10450000080B01F08DFD8DED0C0B1C98FCF725F8C8
:10451000CDE904019DED040B01F0E6FD8DED080BE6
:104520001F98FCF709F8CDE906019DED080B53EC47
:10453000102B9DED060B51EC100BFBF78BFFCDE91B
:104540000A019DED0C0B53EC102B9DED0A0B51EC69
:10455000100BFBF77FFFCDE910011D98FBF7FDFF66
:10456000CDE904019DED040B01F0BEFD8DED080BBE
:104570001C98FBF7F2FFCDE900019DED000B01F067
:10458000B3FD8DED040B2098FBF7D6FFCDE90201BA
:104590009DED040B53EC102B9DED020B51EC100B19
:1045A000FBF758FFCDE906019DED080B53EC102BEE
:1045B0009DED060B51EC100BFBF74CFFCDE90C0108
:1045C0001C98FBF7CAFFCDE904019DED040B01F037
:1045D00027FD8DED080B2198FBF7AEFFCDE9060115
:1045E0009DED080B53EC102B9DED060B51EC100BC1
:1045F000FBF730FFCDE90A019DED0C0B53EC102BBE
:104600009DED0A0B51EC100BFBF77DFECDE90E0181
:104610009DED100B53EC102B9DED0E0B51EC100B80
:10462000FBF771FECDE912019DED141B9DED120B00
:1046300001F0FEFB8DED160B9DED160B51EC100BF2
:10464000FBF79EFF1E909DED1E0AF6EE000A20EE7F
:10465000200A8DED0B0A0B98FBF77FFFCDE90C01CB
:104660009DED0C0B01F040FD8DED100B9DED1D0A35
:10467000F6EE000A20EE200A8DED070A0798FBF7F8
:104680006CFFCDE908019DED080B01F02DFD8DEDCE
:104690000C0B9DED1C0AF6EE000A20EE200A8DEDB3
:1046A000070A0798FBF759FFCDE908019DED080BB4
:1046B00001F01AFD8DED0A0B9DED0C0B53EC102B48
:1046C0009DED0A0B51EC100BFBF7C4FECDE90E017A
:1046D0009DED100B53EC102B9DED0E0B51EC100BC0
:1046E000FBF7B8FECDE914019DED1E0AF6EE000AB7
:1046F00020EE200A8DED0B0A0B98FBF72EFFCDE97B
:104700000C019DED0C0B01F08BFC8DED100B9DED64
:104710001D0AF6EE000A20EE200A8DED070A079822
:10472000FBF71BFFCDE908019DED080B01F078FCBC
:104730008DED0C0B9DED1C0AF6EE000A20EE200A12
:104740008DED070A0798FBF708FFCDE908019DEDFD
:10475000080B01F065FC8DED0A0B9DED0C0B53EC85
:10476000102B9DED0A0B51EC100BFBF773FECDE9FE
:104770000E019DED100B53EC102B9DED0E0B51EC2B
:10478000100BFBF767FECDE912019DED140B53EC06
:10479000102B9DED120B51EC100BFBF7B4FDCDE986
:1047A00016019DED160B51EC100BFBF7E9FE2B49A2
:1047B00008609DED1E0AF6EE000A20EE200A8DED3F
:1047C0000B0A0B98FBF7C9FECDE90C019DED0C0B14
:1047D00001F08AFC8DED100B9DED1D0AF6EE000A2E
:1047E00020EE200A8DED070A0798FBF7B6FECDE90B
:1047F00008019DED080B01F013FC8DED0C0B9DEDF8
:104800001C0AF6EE000A20EE200A8DED070A079832
:10481000FBF7A3FECDE908019DED080B01F064FC58
:104820008DED0A0B9DED0C0B53EC102B9DED0A0B3F
:1048300051EC100BFBF70EFECDE90E019DED100BB8
:1048400053EC102B9DED0E0B51EC100BFBF702FE01
:10485000CDE9140104E00000000000001000002079
:104860009DED1E0AF6EE000A20EE200A8DED0B0AE1
:104870000B98FBF772FECDE90C019DED0C0B01F0DE
:10488000CFFB8DED100B9DED1D0AF6EE000A20EE1C
:10489000200A8DED070A0798FBF75FFECDE90801B6
:1048A0009DED080B01F020FC8DED0C0B9DED1C0A1D
:1048B000F6EE000A20EE200A8DED070A0798FBF7B6
:1048C0004CFECDE908019DED080B01F0A9FB8DED33
:1048D0000A0B9DED0C0B53EC102B9DED0A0B51ECCC
:1048E000100BFBF7B7FDCDE90E019DED100B53EC5E
:1048F000102B9DED0E0B51EC100BFBF7ABFDCDE932
:1049000012019DED140B53EC102B9DED120B51EC8D
:10491000100BFBF799FDCDE916019DED160B51EC3F
:10492000100BFBF72DFEB84908609DED1E0AF6EE50
:10493000000A20EE200A8DED0B0A0B98FBF70DFE06
:10494000CDE90C019DED0C0B01F0CEFB8DED100BB4
:104950009DED1D0AF6EE000A20EE200A8DED070AF5
:104960000798FBF7FAFDCDE908019DED080B01F072
:10497000BBFB8DED0C0B9DED1C0AF6EE000A20EE44
:10498000200A8DED070A0798FBF7E7FDCDE908013E
:104990009DED080B01F044FB8DED0A0B9DED0C0B1A
:1049A00053EC102B9DED0A0B51EC100BFBF752FD55
:1049B000CDE90E019DED100B53EC102B9DED0E0B70
:1049C00051EC100BFBF746FDCDE914019DED1E0ADD
:1049D000F6EE000A20EE200A8DED0B0A0B98FBF78D
:1049E000BCFDCDE90C019DED0C0B01F019FB8DED2B
:1049F000100B9DED1D0AF6EE000A20EE200A8DED4B
:104A0000070A0798FBF7A9FDCDE908019DED080B02
:104A100001F006FB8DED0C0B9DED1C0AF6EE000A75
:104A200020EE200A8DED070A0798FBF796FDCDE9E9
:104A300008019DED080B01F057FB8DED0A0B9DED74
:104A40000C0B53EC102B9DED0A0B51EC100BFBF7EC
:104A500001FDCDE90E019DED100B53EC102B9DEDEA
:104A60000E0B51EC100BFBF7F5FCCDE912019DED9F
:104A7000140B53EC102B9DED120B51EC100BFBF7AC
:104A800042FCCDE916019DED160B51EC100BFBF726
:104A900077FD5E4908609DED1E0AF6EE000A20EEE5
:104AA000200A8DED0B0A0B98FBF757FDCDE90C01A1
:104AB0009DED0C0B01F0B4FA8DED100B9DED1D0A70
:104AC000F6EE000A20EE200A8DED070A0798FBF7A4
:104AD00044FDCDE908019DED080B01F005FB8DEDCE
:104AE0000C0B9DED1C0AF6EE000A20EE200A8DED5F
:104AF000070A0798FBF731FDCDE908019DED080B8A
:104B000001F0F2FA8DED0A0B9DED0C0B53EC102B1E
:104B10009DED0A0B51EC100BFBF79CFCCDE90E014F
:104B20009DED100B53EC102B9DED0E0B51EC100B6B
:104B3000FBF790FCCDE914019DED1E0AF6EE000A8C
:104B400020EE200A8DED0B0A0B98FBF706FDCDE950
:104B50000C019DED0C0B01F0C7FA8DED100B9DEDD6
:104B60001D0AF6EE000A20EE200A8DED070A0798CE
:104B7000FBF7F3FCCDE908019DED080B01F050FABD
:104B80008DED0C0B9DED1C0AF6EE000A20EE200ABE
:104B90008DED070A0798FBF7E0FCCDE908019DEDD4
:104BA000080B01F03DFA8DED0A0B9DED0C0B53EC5B
:104BB000102B9DED0A0B51EC100BFBF74BFCCDE9D4
:104BC0000E019DED100B53EC102B9DED0E0B51ECD7
:104BD000100BFBF73FFCCDE912019DED140B53ECDC
:104BE000102B9DED120B51EC100BFBF72DFCCDE9BA
:104BF00016019DED160B51EC100BFBF7C1FC04499F
:104C0000086023B000BD0000140000201800002040
:104C10001C000020704770472DE9F0412DED048BFA
:104C200082B0B0EE408AF0EE608AB0EE419A002485
:104C300000260020019000278046AA222146641CFD
:104C40004B48425405222146641C4254AF2221465F
:104C5000641C425401222146641C42540022214615
:104C6000641C42549FED430A28EE000ABDEEC00AC0
:104C700010EE100A00B200909DF801202146641C3D
:104C80003B4842549DF800202146641C42549FED4D
:104C9000390A28EE800ABDEEC00A10EE100A00B2F2
:104CA00000909DF801202046611CCCB230490A5486
:104CB0009DF800202146601CC4B22D4842549FED4F
:104CC0002D0A29EE000ABDEEC00A10EE100A00B24D
:104CD00000909DF801202146601CC4B22448425433
:104CE0009DF800202046611CCCB221490A549DF851
:104CF00007202146601CC4B21D4842549DF806207E
:104D00002146601CC4B21A4842549DF80520204632
:104D1000611CCCB216490A549DF804202146601C3F
:104D2000C4B2134842542046611CCCB210490F54FF
:104D30002046611CCCB20E4901F80080601F08714A
:104D4000002504E00A48405D3044C6B26D1CA5420F
:104D5000F8DB2046611CCCB205490E5421460448BC
:104D600000F0F4FC02B0BDEC048BBDE8F081000063
:104D7000EC0000200000C8427FB500240026AA22D3
:104D80002146641C5048425405222146641C42546A
:104D9000AF222146641C425402222146641C425424
:104DA00000222146641C42549DF801202146641CC7
:104DB00042549DF800202146641C42549DF8052071
:104DC0002046611CCCB240490A549DF8042020467C
:104DD000611CCCB23C490A549DF809202046611C54
:104DE000CCB239490A549DF808202046611CCCB247
:104DF00035490A549DF80D202046611CCCB2324939
:104E00000A549DF80C202046611CCCB22E490A544D
:104E10009DF821202046611CCCB22B490A549DF8F4
:104E200020202046611CCCB227490A549DF8252039
:104E30002046611CCCB224490A549DF82420204607
:104E4000611CCCB220490A549DF829202046611CDF
:104E5000CCB21D490A549DF828202146601CC4B2DA
:104E6000194842549DF82D202046611CCCB21649A9
:104E70000A549DF82C202046611CCCB212490A54D9
:104E80009DF831202046611CCCB20F490A549DF890
:104E900030202046611CCCB20B490A54601F0871B7
:104EA000002504E00848405D3044C6B26D1CA542B0
:104EB000F8DB2046611CCCB203490E54214602485F
:104EC00000F044FC7FBD0000EC0000202DE9F04123
:104ED00004460D4616461F464FF0000800BF3B46ED
:104EE000324629462046FDF7BDFF80464046BDE8D4
:104EF000F0812DE9F04104460D4616461F464FF05D
:104F0000000800BF3B46324629462046FDF7BEFF5B
:104F100080464046BDE8F08100E0401E0028FCD1FC
:104F20007047000010B50024FBF74AF90446074813
:104F30000078401C054908702046FBF745F9FEF74C
:104F400051FEFEF76BFAFCF767FE10BD99000020DA
:104F500000B593B0302107A8FBF7CAF9142102A8C5
:104F6000FBF7C6F900BF002001902448006840F01C
:104F70008050224908600846006800F08050019087
:104F800000BF00BF00BF002001901D48006840F432
:104F900080401B4908600846006800F4804001908A
:104FA00000BF00BF012007900004089002200D9070
:104FB00041050E9104210F91A82110910221119118
:104FC0000421129107A8FDF745F808B1FCF7F5F8A0
:104FD0000F20029002200390002004904FF4A05074
:104FE00005904FF480500690052102A8FCF7F2FED0
:104FF00008B1FCF7E2F813B000BD000040380240F1
:10500000007000400548006840F4700003490860E3
:105010004FF00060014980390860704788ED00E07A
:1050200010B50268294B98420ED0B0F1804F0BD0DA
:10503000274B984208D0274B984205D0264B9842E0
:1050400002D0264B984203D122F070024B681A43DB
:105050001E4B984220D0B0F1804F1DD01C4B98427F
:105060001AD01C4B984217D01B4B984214D01B4BA4
:10507000984211D01A4B98420ED01A4B98420BD03E
:10508000194B984208D0194B984205D0184B9842BA
:1050900002D0184B984203D122F44072CB681A43D5
:1050A00022F080034C6943EA040202608B68C36209
:1050B0000B688362054B984202D0084B984201D19D
:1050C0000B6903630123436110BD00000000014030
:1050D0000004004000080040000C004000040140B3
:1050E00000400140004401400048014000180040D9
:1050F000001C00400020004030B50C46816821F4BF
:105100007F4142EA032525432943816030BD0A4699
:10511000816821F0700142F00703194381607047F4
:1051200030B50B461446026A056A25F00105056292
:10513000816921F0F00141EA041122F00A021A43C8
:105140008161026230BD30B50B461446056A25F018
:10515000100505628169026A21F4704141EA043157
:1051600022F0A00242EA03128161026230BD000017
:10517000FEF7B0FD4EE0FCF721F8FCF713F8E8BBB2
:105180002548B0F9040004EE900AF8EEE44AB0EEC7
:10519000644A2148B0F9020004EE900AF8EEE44AAD
:1051A000F0EE643A1C48B0F9000004EE900AF8EE04
:1051B000E44AB0EE643A1948B0F9040004EE900AEB
:1051C000F8EEE44AF0EE642A1448B0F9020004EE66
:1051D000900AF8EEE44AB0EE642A1048B0F90000F4
:1051E00004EE900AF8EEE44AF0EE641A0C48D0EDB2
:1051F000024AB0EE641AD0ED014A00E007E0F0EE9A
:10520000640AD0ED004AB0EE640AFBF7AFFB012060
:10521000FEF7ACFCAFE700006A000020520000205F
:10522000D400002086B0FEF755FD59E02D48B0F9B6
:105230000410B0F90220B0F900002B4BB3F9043090
:1052400000EE103AB8EEC00ADFED280A20EE200A80
:10525000BDEEC00A10EE103A1BB2CDE90130CDE927
:1052600003212148B0F9020000EE100AB8EEC00A8E
:10527000DFED1E0A20EE200ABDEEC00A10EE100A75
:1052800000B2194C0090B4F9004000EE104AB8EE9C
:10529000C00ADFED160A20EE200ABDEEC00A10EEAD
:1052A000104A23B2124CB4F90420B4F90210B4F934
:1052B0000000FFF761FDFBF775FF70B90D48D0EDF9
:1052C000001AB0EE611AD0ED021AF0EE610AD0EDCC
:1052D000011AB0EE610AFFF79FFC0A20FEF746FCB8
:1052E000A4E700006A0000205E000020F1FF793D85
:1052F00052000020E00000202DE9F84F044620680D
:10530000006920F44050E168084321680861216980
:10531000A068084361690843E16908430090206878
:10532000C06849F20C618843009908432168C8604D
:105330002068406920F44070A169084321684861F1
:10534000E069B0F5004F75D1E3492068884203D089
:10535000E249206888426FD1FCF714FE81460220A2
:105360006168A0FB01510B461920A9FB00712A4678
:105370003846FAF785FF6421B0FBF1F04FEA001AD6
:1053800002206168A0FB01510B461920A9FB0071A6
:105390002A463846FAF774FF074602206168A0FBE8
:1053A00001510B461920A9FB00B12A465846FAF7CD
:1053B00067FF6421B0FBF1F000EBC00101EB0010CE
:1053C000A7EB8000322101EBC0006421B0FBF1F0BB
:1053D00000F0F8000AEB400A02206168A0FB0151CE
:1053E0000B461920A9FB00712A463846FAF748FFF8
:1053F000074602206168A0FB01510B461920A9FB5A
:1054000000B12A465846FAF73BFF6421B0FBF1F0A1
:1054100000EBC00101EB0010A7EB8000322101EB93
:10542000C0006421B0FBF1F000F007005044216897
:1054300088604FE16EE0FFE7FCF794FD81460220B3
:105440006168A0FB01510B461920A9FB00712A4697
:105450003846FAF715FF6421B0FBF1F04FEA001A65
:1054600002206168A0FB01510B461920A9FB0071C5
:105470002A463846FAF704FF074602206168A0FB77
:1054800001510B461920A9FB00B12A465846FAF7EC
:10549000F7FE6421B0FBF1F000EBC00101EB00105E
:1054A000A7EB8000322101EBC0006421B0FBF1F0DA
:1054B00000F0F8000AEB400A02206168A0FB0151ED
:1054C0000B461920A9FB00712A463846FAF7D8FE88
:1054D000074602206168A0FB015003461920A9FB82
:1054E00000B12A465846FAF7CBFE6421B0FBF1F032
:1054F00000EBC00101EB0010A7EB8000322101EBB3
:10550000C0006421B0FBF1F000F0070050442168B6
:105510008860DFE070492068884203D06F492068C6
:1055200088426BD1FCF72EFD814604206168A0FB08
:1055300001510B461920A9FB00712A463846FAF79B
:105540009FFE824604206168A0FB01510B46192092
:10555000A9FB00712A463846FAF792FE6421B0FB97
:10556000F1F000EBC00101EB0010AAEB800032214A
:1055700001EB00106421B0FBF1F000F0F00A042010
:105580006168A0FB015003461920A9FB00712A465F
:105590003846FAF775FE6421B0FBF1F00AEB001A09
:1055A00004206168A0FB01510B461920A9FB007182
:1055B0002A463846FAF764FE074604206168A0FBD5
:1055C000015003461920A9FB00B12A465846FAF7B4
:1055D00057FE6421B0FBF1F000EBC00101EB0010BD
:1055E000A7EB8000322101EB00106421B0FBF1F049
:1055F00000F00F005044216888606BE0FCF7B2FCBB
:10560000814604206168A0FB015003461920A9FBD4
:1056100000712A463846FAF733FE82460420616854
:10562000A0FB015003461920A9FB00712A46384609
:10563000FAF726FE6421B0FBF1F000EBC00101EBAC
:105640000010AAEB8000322101EB00106421B0FBB6
:10565000F1F000F0F00A04206168A0FB015003465D
:105660001920A9FB00712A463846FAF709FE642181
:10567000B0FBF1F00AEB001A04206168A0FB017096
:1056800003461920A9FB005001463A462846FAF77E
:10569000F7FD074604206168A0FB0150034619206E
:1056A000A9FB00B12A465846FAF7EAFD6421B0FB8F
:1056B000F1F000EBC00101EB0010A7EB80003221FC
:1056C00001EB00106421B0FBF1F000F00F0050443A
:1056D00021688860BDE8F88F001001400014014087
:1056E0002DE9F04104460D4617469846069E21E0F6
:1056F000701CF8B12EB1FBF731FFA0EB0800B042EF
:1057000018D92068C06820F4D0702168C86020686B
:10571000406920F0010021684861202084F83900A8
:1057200084F83A0000BF002084F8380000BF03204E
:10573000BDE8F081206800682840A84201D101201E
:1057400000E00020B842D3D00020F1E770B5044655
:105750000D464FF6FF732A4621460248FDF766F8CC
:1057600070BD0000B411002000BFFEE70FB4054B70
:1057700010B503A9044A029801F06CF910BC5DF859
:1057800014FB0000D16B0008CC00002003B401988A
:105790004100009850EAC12018BF04204A0D18BFEC
:1057A00040F0010040F2FF72B2EB515F08BF40F0E1
:1057B0000200012808BF052002B0704702480068B7
:1057C000C0F30220704700000CED00E010B5002887
:1057D00004DB0A07130E054A135406E00A07140EE9
:1057E000034A00F00F031B1FD45410BD00E400E077
:1057F00018ED00E00000000070B5C1482DED020B6F
:105800002DED0E8B82B0119D25F000449FEDBEDB87
:105810009FEDBFEB84423EDBA4F140511098A1F113
:105820007F6108430FD0BC48844202DC28D1109825
:1058300030B39DED100B02B0BDEC0E8B02B0BDE895
:10584000704001F0BDB89DED100B53EC1D2B51ECD9
:10585000100BFAF7FFFD9DED100B41EC180B53EC0C
:105860001E2B51EC100BFAF7F5FD53EC182BFAF741
:105870004AFD41EC100B02B0BDEC0E8B02B070BDC6
:10588000012001F0E1F802B0BDEC0E8B02B0BDE8E2
:10589000704001F0A9B8A1489FEDA18B844256DA6F
:1058A0009DED100BB4F1795F0ADA51EC100BFFF7A4
:1058B0006DFF042808BF01F0A7F89DED100BDAE793
:1058C00053EC102B51EC100BFAF7C4FD41EC190B03
:1058D00095480621B0EE490AF0EE690A784400F0D6
:1058E0005BFF53EC192B51EC100BFAF7B3FD41ECB5
:1058F0001A0B8E48B0EE490AF0EE690A042178448A
:1059000000F04AFF53EC192B51EC100BFAF7A2FDF3
:1059100053EC182BFAF7F7FC41EC100B51EC1A0B77
:1059200053EC102BFAF723FFCDE900019DED000B9E
:1059300053EC102B9DED100B51EC100BFAF78AFD78
:105940009DED101B53EC112BFAF7DDFCD2E09DED21
:10595000100B51EC100B01F02FF953EC182BFAF748
:1059600076FD9FED730BCDE9000153EC102B9DEDFF
:10597000000B51EC100BFAF76DFD41EC190B6E4862
:105980000621B0EE490AF0EE690A784400F004FFFF
:1059900053EC192B51EC100BFAF75CFD41EC1B0B8F
:1059A0006648B0EE490AF0EE690A0421784400F036
:1059B000F3FE53EC192B51EC100BFAF74BFD53ECA3
:1059C000182BFAF7A0FC41EC1C0B51EC190B01F061
:1059D00059F941EC180B5A489FED5BABA04222DC11
:1059E00053EC1C2B51EC1B0BFAF7C1FECDE9000167
:1059F0009DED000B51EC180B53EC102BFAF72AFD20
:105A000053EC182BFAF77FFC53EC1A2BFAF722FD14
:105A100053EC1D2BFAF718FD53EC1E2BFAF717FD6C
:105A200041EC100B5FE08DED008B002000909DEDB0
:105A3000000B51EC180B53EC102BFAF764FC9DEDA6
:105A4000000B41EC1E0B53EC102B51EC100BFAF732
:105A500001FD53EC192BFAF7FAFC53EC1E2BFAF765
:105A600086FE41EC190B53EC1C2B51EC1B0BFAF787
:105A70007EFE41EC1B0B53EC1A2B51EC190BFAF781
:105A8000E9FC53EC1D2BFAF7E2FC41EC190B53EC4B
:105A90001A2B51EC180BFAF7DDFC53EC1B2BFAF721
:105AA000D9FC53EC192BFAF7CFFC9DED000B41EC20
:105AB000180B53EC1A2B51EC100BFAF7CBFC9FEDA3
:105AC000249B53EC192BFAF7C2FC41EC100B51EC60
:105AD000180B53EC102BFAF7B7FC53EC192BFAF711
